{
  "contractName": "ColorsContract",
  "abi": [
    {
      "inputs": [],
      "stateMutability": "nonpayable",
      "type": "constructor"
    },
    {
      "anonymous": false,
      "inputs": [
        {
          "indexed": true,
          "internalType": "address",
          "name": "owner",
          "type": "address"
        },
        {
          "indexed": true,
          "internalType": "address",
          "name": "approved",
          "type": "address"
        },
        {
          "indexed": true,
          "internalType": "uint256",
          "name": "tokenId",
          "type": "uint256"
        }
      ],
      "name": "Approval",
      "type": "event"
    },
    {
      "anonymous": false,
      "inputs": [
        {
          "indexed": true,
          "internalType": "address",
          "name": "owner",
          "type": "address"
        },
        {
          "indexed": true,
          "internalType": "address",
          "name": "operator",
          "type": "address"
        },
        {
          "indexed": false,
          "internalType": "bool",
          "name": "approved",
          "type": "bool"
        }
      ],
      "name": "ApprovalForAll",
      "type": "event"
    },
    {
      "anonymous": false,
      "inputs": [
        {
          "indexed": true,
          "internalType": "address",
          "name": "previousOwner",
          "type": "address"
        },
        {
          "indexed": true,
          "internalType": "address",
          "name": "newOwner",
          "type": "address"
        }
      ],
      "name": "OwnershipTransferred",
      "type": "event"
    },
    {
      "anonymous": false,
      "inputs": [
        {
          "indexed": false,
          "internalType": "string",
          "name": "stateData",
          "type": "string"
        }
      ],
      "name": "StateChanged",
      "type": "event"
    },
    {
      "anonymous": false,
      "inputs": [
        {
          "indexed": true,
          "internalType": "address",
          "name": "from",
          "type": "address"
        },
        {
          "indexed": true,
          "internalType": "address",
          "name": "to",
          "type": "address"
        },
        {
          "indexed": true,
          "internalType": "uint256",
          "name": "tokenId",
          "type": "uint256"
        }
      ],
      "name": "Transfer",
      "type": "event"
    },
    {
      "inputs": [],
      "name": "Debug",
      "outputs": [
        {
          "internalType": "string",
          "name": "",
          "type": "string"
        }
      ],
      "stateMutability": "view",
      "type": "function"
    },
    {
      "inputs": [],
      "name": "LastColorHex",
      "outputs": [
        {
          "internalType": "uint32",
          "name": "",
          "type": "uint32"
        }
      ],
      "stateMutability": "view",
      "type": "function"
    },
    {
      "inputs": [],
      "name": "MargeCommision",
      "outputs": [
        {
          "internalType": "uint256",
          "name": "",
          "type": "uint256"
        }
      ],
      "stateMutability": "view",
      "type": "function"
    },
    {
      "inputs": [],
      "name": "MaxColors",
      "outputs": [
        {
          "internalType": "uint32",
          "name": "",
          "type": "uint32"
        }
      ],
      "stateMutability": "view",
      "type": "function"
    },
    {
      "inputs": [],
      "name": "ROKSContract",
      "outputs": [
        {
          "internalType": "address",
          "name": "",
          "type": "address"
        }
      ],
      "stateMutability": "view",
      "type": "function"
    },
    {
      "inputs": [],
      "name": "ROKSWallet",
      "outputs": [
        {
          "internalType": "address",
          "name": "",
          "type": "address"
        }
      ],
      "stateMutability": "view",
      "type": "function"
    },
    {
      "inputs": [],
      "name": "RocksCommision",
      "outputs": [
        {
          "internalType": "uint256",
          "name": "",
          "type": "uint256"
        }
      ],
      "stateMutability": "view",
      "type": "function"
    },
    {
      "inputs": [
        {
          "internalType": "address",
          "name": "to",
          "type": "address"
        },
        {
          "internalType": "uint256",
          "name": "tokenId",
          "type": "uint256"
        }
      ],
      "name": "approve",
      "outputs": [],
      "stateMutability": "nonpayable",
      "type": "function"
    },
    {
      "inputs": [
        {
          "internalType": "address",
          "name": "owner",
          "type": "address"
        }
      ],
      "name": "balanceOf",
      "outputs": [
        {
          "internalType": "uint256",
          "name": "",
          "type": "uint256"
        }
      ],
      "stateMutability": "view",
      "type": "function"
    },
    {
      "inputs": [
        {
          "internalType": "uint256",
          "name": "tokenId",
          "type": "uint256"
        }
      ],
      "name": "getApproved",
      "outputs": [
        {
          "internalType": "address",
          "name": "",
          "type": "address"
        }
      ],
      "stateMutability": "view",
      "type": "function"
    },
    {
      "inputs": [
        {
          "internalType": "address",
          "name": "owner",
          "type": "address"
        },
        {
          "internalType": "address",
          "name": "operator",
          "type": "address"
        }
      ],
      "name": "isApprovedForAll",
      "outputs": [
        {
          "internalType": "bool",
          "name": "",
          "type": "bool"
        }
      ],
      "stateMutability": "view",
      "type": "function"
    },
    {
      "inputs": [],
      "name": "name",
      "outputs": [
        {
          "internalType": "string",
          "name": "",
          "type": "string"
        }
      ],
      "stateMutability": "view",
      "type": "function"
    },
    {
      "inputs": [],
      "name": "owner",
      "outputs": [
        {
          "internalType": "address",
          "name": "",
          "type": "address"
        }
      ],
      "stateMutability": "view",
      "type": "function"
    },
    {
      "inputs": [
        {
          "internalType": "uint256",
          "name": "tokenId",
          "type": "uint256"
        }
      ],
      "name": "ownerOf",
      "outputs": [
        {
          "internalType": "address",
          "name": "",
          "type": "address"
        }
      ],
      "stateMutability": "view",
      "type": "function"
    },
    {
      "inputs": [],
      "name": "renounceOwnership",
      "outputs": [],
      "stateMutability": "nonpayable",
      "type": "function"
    },
    {
      "inputs": [
        {
          "internalType": "address",
          "name": "from",
          "type": "address"
        },
        {
          "internalType": "address",
          "name": "to",
          "type": "address"
        },
        {
          "internalType": "uint256",
          "name": "tokenId",
          "type": "uint256"
        }
      ],
      "name": "safeTransferFrom",
      "outputs": [],
      "stateMutability": "nonpayable",
      "type": "function"
    },
    {
      "inputs": [
        {
          "internalType": "address",
          "name": "from",
          "type": "address"
        },
        {
          "internalType": "address",
          "name": "to",
          "type": "address"
        },
        {
          "internalType": "uint256",
          "name": "tokenId",
          "type": "uint256"
        },
        {
          "internalType": "bytes",
          "name": "_data",
          "type": "bytes"
        }
      ],
      "name": "safeTransferFrom",
      "outputs": [],
      "stateMutability": "nonpayable",
      "type": "function"
    },
    {
      "inputs": [
        {
          "internalType": "address",
          "name": "operator",
          "type": "address"
        },
        {
          "internalType": "bool",
          "name": "approved",
          "type": "bool"
        }
      ],
      "name": "setApprovalForAll",
      "outputs": [],
      "stateMutability": "nonpayable",
      "type": "function"
    },
    {
      "inputs": [
        {
          "internalType": "bytes4",
          "name": "interfaceId",
          "type": "bytes4"
        }
      ],
      "name": "supportsInterface",
      "outputs": [
        {
          "internalType": "bool",
          "name": "",
          "type": "bool"
        }
      ],
      "stateMutability": "view",
      "type": "function"
    },
    {
      "inputs": [],
      "name": "symbol",
      "outputs": [
        {
          "internalType": "string",
          "name": "",
          "type": "string"
        }
      ],
      "stateMutability": "view",
      "type": "function"
    },
    {
      "inputs": [
        {
          "internalType": "uint256",
          "name": "index",
          "type": "uint256"
        }
      ],
      "name": "tokenByIndex",
      "outputs": [
        {
          "internalType": "uint256",
          "name": "",
          "type": "uint256"
        }
      ],
      "stateMutability": "view",
      "type": "function"
    },
    {
      "inputs": [
        {
          "internalType": "address",
          "name": "owner",
          "type": "address"
        },
        {
          "internalType": "uint256",
          "name": "index",
          "type": "uint256"
        }
      ],
      "name": "tokenOfOwnerByIndex",
      "outputs": [
        {
          "internalType": "uint256",
          "name": "",
          "type": "uint256"
        }
      ],
      "stateMutability": "view",
      "type": "function"
    },
    {
      "inputs": [
        {
          "internalType": "uint256",
          "name": "tokenId",
          "type": "uint256"
        }
      ],
      "name": "tokenURI",
      "outputs": [
        {
          "internalType": "string",
          "name": "",
          "type": "string"
        }
      ],
      "stateMutability": "view",
      "type": "function"
    },
    {
      "inputs": [],
      "name": "totalSupply",
      "outputs": [
        {
          "internalType": "uint256",
          "name": "",
          "type": "uint256"
        }
      ],
      "stateMutability": "view",
      "type": "function"
    },
    {
      "inputs": [
        {
          "internalType": "address",
          "name": "from",
          "type": "address"
        },
        {
          "internalType": "address",
          "name": "to",
          "type": "address"
        },
        {
          "internalType": "uint256",
          "name": "tokenId",
          "type": "uint256"
        }
      ],
      "name": "transferFrom",
      "outputs": [],
      "stateMutability": "nonpayable",
      "type": "function"
    },
    {
      "inputs": [
        {
          "internalType": "address",
          "name": "newOwner",
          "type": "address"
        }
      ],
      "name": "transferOwnership",
      "outputs": [],
      "stateMutability": "nonpayable",
      "type": "function"
    },
    {
      "inputs": [
        {
          "internalType": "address",
          "name": "contractAddress",
          "type": "address"
        },
        {
          "internalType": "address",
          "name": "rOKSWallet",
          "type": "address"
        }
      ],
      "name": "setROKS",
      "outputs": [],
      "stateMutability": "nonpayable",
      "type": "function"
    },
    {
      "inputs": [
        {
          "internalType": "uint256",
          "name": "rocksCommision",
          "type": "uint256"
        }
      ],
      "name": "setROKSCommision",
      "outputs": [],
      "stateMutability": "nonpayable",
      "type": "function"
    },
    {
      "inputs": [
        {
          "internalType": "uint256",
          "name": "margeCommision",
          "type": "uint256"
        }
      ],
      "name": "setMargeCommision",
      "outputs": [],
      "stateMutability": "nonpayable",
      "type": "function"
    },
    {
      "inputs": [
        {
          "internalType": "uint32[]",
          "name": "colorCodes",
          "type": "uint32[]"
        },
        {
          "internalType": "string[]",
          "name": "titles",
          "type": "string[]"
        }
      ],
      "name": "mintColors",
      "outputs": [],
      "stateMutability": "nonpayable",
      "type": "function"
    },
    {
      "inputs": [
        {
          "internalType": "uint32",
          "name": "colorCode0",
          "type": "uint32"
        },
        {
          "internalType": "uint32",
          "name": "colorCode1",
          "type": "uint32"
        },
        {
          "internalType": "uint32",
          "name": "iterationCount",
          "type": "uint32"
        }
      ],
      "name": "margeColors",
      "outputs": [
        {
          "internalType": "uint32",
          "name": "",
          "type": "uint32"
        }
      ],
      "stateMutability": "payable",
      "type": "function"
    },
    {
      "inputs": [
        {
          "internalType": "uint32",
          "name": "colorCode0",
          "type": "uint32"
        },
        {
          "internalType": "uint32",
          "name": "colorCode1",
          "type": "uint32"
        },
        {
          "internalType": "uint32",
          "name": "iterationCount",
          "type": "uint32"
        }
      ],
      "name": "predictColorAfterMarge",
      "outputs": [
        {
          "internalType": "uint32",
          "name": "",
          "type": "uint32"
        }
      ],
      "stateMutability": "view",
      "type": "function"
    },
    {
      "inputs": [
        {
          "internalType": "uint32",
          "name": "colorCode",
          "type": "uint32"
        },
        {
          "internalType": "string",
          "name": "title",
          "type": "string"
        },
        {
          "internalType": "string",
          "name": "metadata",
          "type": "string"
        }
      ],
      "name": "setInfo",
      "outputs": [],
      "stateMutability": "nonpayable",
      "type": "function"
    },
    {
      "inputs": [
        {
          "internalType": "uint32",
          "name": "iterationCount",
          "type": "uint32"
        }
      ],
      "name": "mintRandomColor",
      "outputs": [
        {
          "internalType": "uint32",
          "name": "",
          "type": "uint32"
        }
      ],
      "stateMutability": "nonpayable",
      "type": "function"
    },
    {
      "inputs": [
        {
          "internalType": "uint32",
          "name": "colorCode",
          "type": "uint32"
        }
      ],
      "name": "getColorInfo",
      "outputs": [
        {
          "components": [
            {
              "internalType": "string",
              "name": "title",
              "type": "string"
            },
            {
              "internalType": "string",
              "name": "metadata",
              "type": "string"
            },
            {
              "internalType": "bool",
              "name": "isValue",
              "type": "bool"
            }
          ],
          "internalType": "struct ColorsContract.Color",
          "name": "",
          "type": "tuple"
        }
      ],
      "stateMutability": "view",
      "type": "function"
    },
    {
      "inputs": [
        {
          "internalType": "uint256",
          "name": "number",
          "type": "uint256"
        }
      ],
      "name": "uintToHexString",
      "outputs": [
        {
          "internalType": "string",
          "name": "",
          "type": "string"
        }
      ],
      "stateMutability": "pure",
      "type": "function"
    }
  ],
  "bytecode": "0x60806040526040518060400160405280600481526020017f4e756c6c00000000000000000000000000000000000000000000000000000000815250600b908051906020019062000051929190620002db565b506000600c60006101000a81548163ffffffff021916908363ffffffff1602179055506000600c60046101000a81548173ffffffffffffffffffffffffffffffffffffffff021916908373ffffffffffffffffffffffffffffffffffffffff1602179055506000600d60006101000a81548173ffffffffffffffffffffffffffffffffffffffff021916908373ffffffffffffffffffffffffffffffffffffffff1602179055506000600e556000600f553480156200010f57600080fd5b506040518060400160405280601a81526020017f54686520436f6c6f72732028746865636f6c6f72732e617274290000000000008152506040518060400160405280600681526020017f434f4c4f52530000000000000000000000000000000000000000000000000000815250816000908051906020019062000194929190620002db565b508060019080519060200190620001ad929190620002db565b505050620001d0620001c46200020d60201b60201c565b6200021560201b60201c565b7f8fbf346523616c015d34c71713ea41bb98008282341b0f191f578d20d7ed26e2604051620001ff90620003ec565b60405180910390a162000473565b600033905090565b6000600a60009054906101000a900473ffffffffffffffffffffffffffffffffffffffff16905081600a60006101000a81548173ffffffffffffffffffffffffffffffffffffffff021916908373ffffffffffffffffffffffffffffffffffffffff1602179055508173ffffffffffffffffffffffffffffffffffffffff168173ffffffffffffffffffffffffffffffffffffffff167f8be0079c531659141344cd1fd0a4f28419497f9722a3daafe3b4186f6b6457e060405160405180910390a35050565b828054620002e9906200043d565b90600052602060002090601f0160209004810192826200030d576000855562000359565b82601f106200032857805160ff191683800117855562000359565b8280016001018555821562000359579182015b82811115620003585782518255916020019190600101906200033b565b5b5090506200036891906200036c565b5090565b5b80821115620003875760008160009055506001016200036d565b5090565b600082825260208201905092915050565b7f496e697400000000000000000000000000000000000000000000000000000000600082015250565b6000620003d46004836200038b565b9150620003e1826200039c565b602082019050919050565b600060208201905081810360008301526200040781620003c5565b9050919050565b7f4e487b7100000000000000000000000000000000000000000000000000000000600052602260045260246000fd5b600060028204905060018216806200045657607f821691505b602082108114156200046d576200046c6200040e565b5b50919050565b6157eb80620004836000396000f3fe60806040526004361061020f5760003560e01c806370a0823111610118578063b62f8881116100a0578063c87b56dd1161006f578063c87b56dd146107da578063df9404df14610817578063e985e9c514610842578063f2fde38b1461087f578063f7402eb4146108a85761020f565b8063b62f88811461071e578063b7f1b9b914610749578063b88d4fde14610774578063bd25a24b1461079d5761020f565b80638da5cb5b116100e75780638da5cb5b1461064457806395d89b411461066f5780639893f6461461069a578063a22cb465146106c5578063a2ae0848146106ee5761020f565b806370a082311461058a578063715018a6146105c757806378a66386146105de578063867308c3146106075761020f565b8063285d48ce1161019b5780634f6ccce71161016a5780634f6ccce7146104915780635df3ed48146104ce57806362c9b961146104f95780636352211e1461052257806368c501f11461055f5761020f565b8063285d48ce146103c55780632f745c59146103ee578063388a3b4a1461042b57806342842e0e146104685761020f565b806318160ddd116101e257806318160ddd146102e2578063197543751461030d5780631f03276914610336578063232f06b71461035f57806323b872dd1461039c5761020f565b806301ffc9a71461021457806306fdde0314610251578063081812fc1461027c578063095ea7b3146102b9575b600080fd5b34801561022057600080fd5b5061023b600480360381019061023691906139d6565b6108d3565b6040516102489190613a1e565b60405180910390f35b34801561025d57600080fd5b5061026661094d565b6040516102739190613ad2565b60405180910390f35b34801561028857600080fd5b506102a3600480360381019061029e9190613b2a565b6109df565b6040516102b09190613b98565b60405180910390f35b3480156102c557600080fd5b506102e060048036038101906102db9190613bdf565b610a64565b005b3480156102ee57600080fd5b506102f7610b7c565b6040516103049190613c2e565b60405180910390f35b34801561031957600080fd5b50610334600480360381019061032f9190613c49565b610b89565b005b34801561034257600080fd5b5061035d60048036038101906103589190613b2a565b610c8b565b005b34801561036b57600080fd5b5061038660048036038101906103819190613b2a565b610d11565b6040516103939190613ad2565b60405180910390f35b3480156103a857600080fd5b506103c360048036038101906103be9190613c89565b610f32565b005b3480156103d157600080fd5b506103ec60048036038101906103e79190613b2a565b610f92565b005b3480156103fa57600080fd5b5061041560048036038101906104109190613bdf565b611018565b6040516104229190613c2e565b60405180910390f35b34801561043757600080fd5b50610452600480360381019061044d9190613d18565b6110bd565b60405161045f9190613df5565b60405180910390f35b34801561047457600080fd5b5061048f600480360381019061048a9190613c89565b61122f565b005b34801561049d57600080fd5b506104b860048036038101906104b39190613b2a565b61124f565b6040516104c59190613c2e565b60405180910390f35b3480156104da57600080fd5b506104e36112c0565b6040516104f09190613b98565b60405180910390f35b34801561050557600080fd5b50610520600480360381019061051b91906140f5565b6112e6565b005b34801561052e57600080fd5b5061054960048036038101906105449190613b2a565b61159b565b6040516105569190613b98565b60405180910390f35b34801561056b57600080fd5b5061057461164d565b6040516105819190613ad2565b60405180910390f35b34801561059657600080fd5b506105b160048036038101906105ac919061416d565b6116db565b6040516105be9190613c2e565b60405180910390f35b3480156105d357600080fd5b506105dc611793565b005b3480156105ea57600080fd5b506106056004803603810190610600919061419a565b61181b565b005b34801561061357600080fd5b5061062e60048036038101906106299190614225565b611aeb565b60405161063b9190614287565b60405180910390f35b34801561065057600080fd5b50610659611c8e565b6040516106669190613b98565b60405180910390f35b34801561067b57600080fd5b50610684611cb8565b6040516106919190613ad2565b60405180910390f35b3480156106a657600080fd5b506106af611d4a565b6040516106bc9190613c2e565b60405180910390f35b3480156106d157600080fd5b506106ec60048036038101906106e791906142ce565b611d50565b005b61070860048036038101906107039190614225565b611d66565b6040516107159190614287565b60405180910390f35b34801561072a57600080fd5b506107336120bd565b6040516107409190613b98565b60405180910390f35b34801561075557600080fd5b5061075e6120e3565b60405161076b9190614287565b60405180910390f35b34801561078057600080fd5b5061079b600480360381019061079691906143af565b6120ea565b005b3480156107a957600080fd5b506107c460048036038101906107bf9190613d18565b61214c565b6040516107d19190614287565b60405180910390f35b3480156107e657600080fd5b5061080160048036038101906107fc9190613b2a565b6123c3565b60405161080e9190613ad2565b60405180910390f35b34801561082357600080fd5b5061082c61246a565b6040516108399190614287565b60405180910390f35b34801561084e57600080fd5b5061086960048036038101906108649190613c49565b612480565b6040516108769190613a1e565b60405180910390f35b34801561088b57600080fd5b506108a660048036038101906108a1919061416d565b612514565b005b3480156108b457600080fd5b506108bd61260c565b6040516108ca9190613c2e565b60405180910390f35b60007f780e9d63000000000000000000000000000000000000000000000000000000007bffffffffffffffffffffffffffffffffffffffffffffffffffffffff1916827bffffffffffffffffffffffffffffffffffffffffffffffffffffffff19161480610946575061094582612612565b5b9050919050565b60606000805461095c90614461565b80601f016020809104026020016040519081016040528092919081815260200182805461098890614461565b80156109d55780601f106109aa576101008083540402835291602001916109d5565b820191906000526020600020905b8154815290600101906020018083116109b857829003601f168201915b5050505050905090565b60006109ea826126f4565b610a29576040517f08c379a0000000000000000000000000000000000000000000000000000000008152600401610a2090614505565b60405180910390fd5b6004600083815260200190815260200160002060009054906101000a900473ffffffffffffffffffffffffffffffffffffffff169050919050565b6000610a6f8261159b565b90508073ffffffffffffffffffffffffffffffffffffffff168373ffffffffffffffffffffffffffffffffffffffff161415610ae0576040517f08c379a0000000000000000000000000000000000000000000000000000000008152600401610ad790614597565b60405180910390fd5b8073ffffffffffffffffffffffffffffffffffffffff16610aff612760565b73ffffffffffffffffffffffffffffffffffffffff161480610b2e5750610b2d81610b28612760565b612480565b5b610b6d576040517f08c379a0000000000000000000000000000000000000000000000000000000008152600401610b6490614629565b60405180910390fd5b610b778383612768565b505050565b6000600880549050905090565b610b91612760565b73ffffffffffffffffffffffffffffffffffffffff16610baf611c8e565b73ffffffffffffffffffffffffffffffffffffffff1614610c05576040517f08c379a0000000000000000000000000000000000000000000000000000000008152600401610bfc90614695565b60405180910390fd5b81600d60006101000a81548173ffffffffffffffffffffffffffffffffffffffff021916908373ffffffffffffffffffffffffffffffffffffffff16021790555080600c60046101000a81548173ffffffffffffffffffffffffffffffffffffffff021916908373ffffffffffffffffffffffffffffffffffffffff1602179055505050565b610c93612760565b73ffffffffffffffffffffffffffffffffffffffff16610cb1611c8e565b73ffffffffffffffffffffffffffffffffffffffff1614610d07576040517f08c379a0000000000000000000000000000000000000000000000000000000008152600401610cfe90614695565b60405180910390fd5b80600e8190555050565b606060008260001b905060006040518060400160405280601081526020017f303132333435363738396162636465660000000000000000000000000000000081525090506000600667ffffffffffffffff811115610d7257610d71613e1c565b5b6040519080825280601f01601f191660200182016040528015610da45781602001600182028036833780820191505090505b50905060005b6003811015610f265782600485601d84610dc491906146e4565b60208110610dd557610dd461473a565b5b1a60f81b7effffffffffffffffffffffffffffffffffffffffffffffffffffffffffffff1916901c60f81c60ff1681518110610e1457610e1361473a565b5b602001015160f81c60f81b82600283610e2d9190614769565b81518110610e3e57610e3d61473a565b5b60200101907effffffffffffffffffffffffffffffffffffffffffffffffffffffffffffff1916908160001a90535082600f60f81b85601d84610e8191906146e4565b60208110610e9257610e9161473a565b5b1a60f81b1660f81c60ff1681518110610eae57610ead61473a565b5b602001015160f81c60f81b82600283610ec79190614769565b6001610ed391906146e4565b81518110610ee457610ee361473a565b5b60200101907effffffffffffffffffffffffffffffffffffffffffffffffffffffffffffff1916908160001a9053508080610f1e906147c3565b915050610daa565b50809350505050919050565b610f43610f3d612760565b82612821565b610f82576040517f08c379a0000000000000000000000000000000000000000000000000000000008152600401610f799061487e565b60405180910390fd5b610f8d8383836128ff565b505050565b610f9a612760565b73ffffffffffffffffffffffffffffffffffffffff16610fb8611c8e565b73ffffffffffffffffffffffffffffffffffffffff161461100e576040517f08c379a000000000000000000000000000000000000000000000000000000000815260040161100590614695565b60405180910390fd5b80600f8190555050565b6000611023836116db565b8210611064576040517f08c379a000000000000000000000000000000000000000000000000000000000815260040161105b90614910565b60405180910390fd5b600660008473ffffffffffffffffffffffffffffffffffffffff1673ffffffffffffffffffffffffffffffffffffffff168152602001908152602001600020600083815260200190815260200160002054905092915050565b6110c56138a4565b601060008363ffffffff1681526020019081526020016000206040518060600160405290816000820180546110f990614461565b80601f016020809104026020016040519081016040528092919081815260200182805461112590614461565b80156111725780601f1061114757610100808354040283529160200191611172565b820191906000526020600020905b81548152906001019060200180831161115557829003601f168201915b5050505050815260200160018201805461118b90614461565b80601f01602080910402602001604051908101604052809291908181526020018280546111b790614461565b80156112045780601f106111d957610100808354040283529160200191611204565b820191906000526020600020905b8154815290600101906020018083116111e757829003601f168201915b505050505081526020016002820160009054906101000a900460ff1615151515815250509050919050565b61124a838383604051806020016040528060008152506120ea565b505050565b6000611259610b7c565b821061129a576040517f08c379a0000000000000000000000000000000000000000000000000000000008152600401611291906149a2565b60405180910390fd5b600882815481106112ae576112ad61473a565b5b90600052602060002001549050919050565b600c60049054906101000a900473ffffffffffffffffffffffffffffffffffffffff1681565b6112ee612760565b73ffffffffffffffffffffffffffffffffffffffff1661130c611c8e565b73ffffffffffffffffffffffffffffffffffffffff1614611362576040517f08c379a000000000000000000000000000000000000000000000000000000000815260040161135990614695565b60405180910390fd5b62ffffff63ffffffff168251611376610b7c565b61138091906146e4565b11156113c1576040517f08c379a00000000000000000000000000000000000000000000000000000000081526004016113b890614a0e565b60405180910390fd5b60006113cb612760565b905060005b83518163ffffffff1610156115955761140e848263ffffffff16815181106113fb576113fa61473a565b5b602002602001015163ffffffff166126f4565b15801561144a575062ffffff63ffffffff16848263ffffffff16815181106114395761143861473a565b5b602002602001015163ffffffff1611155b156115825761147f82858363ffffffff168151811061146c5761146b61473a565b5b602002602001015163ffffffff16612b5b565b6040518060600160405280848363ffffffff16815181106114a3576114a261473a565b5b602002602001015181526020016114df868463ffffffff16815181106114cc576114cb61473a565b5b602002602001015163ffffffff16612b79565b81526020016001151581525060106000868463ffffffff16815181106115085761150761473a565b5b602002602001015163ffffffff16815260200190815260200160002060008201518160000190805190602001906115409291906138c7565b50602082015181600101908051906020019061155d9291906138c7565b5060408201518160020160006101000a81548160ff0219169083151502179055509050505b808061158d90614a2e565b9150506113d0565b50505050565b6000806002600084815260200190815260200160002060009054906101000a900473ffffffffffffffffffffffffffffffffffffffff169050600073ffffffffffffffffffffffffffffffffffffffff168173ffffffffffffffffffffffffffffffffffffffff161415611644576040517f08c379a000000000000000000000000000000000000000000000000000000000815260040161163b90614acd565b60405180910390fd5b80915050919050565b600b805461165a90614461565b80601f016020809104026020016040519081016040528092919081815260200182805461168690614461565b80156116d35780601f106116a8576101008083540402835291602001916116d3565b820191906000526020600020905b8154815290600101906020018083116116b657829003601f168201915b505050505081565b60008073ffffffffffffffffffffffffffffffffffffffff168273ffffffffffffffffffffffffffffffffffffffff16141561174c576040517f08c379a000000000000000000000000000000000000000000000000000000000815260040161174390614b5f565b60405180910390fd5b600360008373ffffffffffffffffffffffffffffffffffffffff1673ffffffffffffffffffffffffffffffffffffffff168152602001908152602001600020549050919050565b61179b612760565b73ffffffffffffffffffffffffffffffffffffffff166117b9611c8e565b73ffffffffffffffffffffffffffffffffffffffff161461180f576040517f08c379a000000000000000000000000000000000000000000000000000000000815260040161180690614695565b60405180910390fd5b6118196000612cda565b565b61182a8363ffffffff166126f4565b611869576040517f08c379a000000000000000000000000000000000000000000000000000000000815260040161186090614bcb565b60405180910390fd5b600073ffffffffffffffffffffffffffffffffffffffff16600d60009054906101000a900473ffffffffffffffffffffffffffffffffffffffff1673ffffffffffffffffffffffffffffffffffffffff16141580156119175750600073ffffffffffffffffffffffffffffffffffffffff16600c60049054906101000a900473ffffffffffffffffffffffffffffffffffffffff1673ffffffffffffffffffffffffffffffffffffffff1614155b15611a84576000600d60009054906101000a900473ffffffffffffffffffffffffffffffffffffffff169050600e548173ffffffffffffffffffffffffffffffffffffffff166370a0823161196a612760565b6040518263ffffffff1660e01b81526004016119869190613b98565b602060405180830381865afa1580156119a3573d6000803e3d6000fd5b505050506040513d601f19601f820116820180604052508101906119c79190614c00565b10156119d6576119d5614c2d565b5b8073ffffffffffffffffffffffffffffffffffffffff166323b872dd6119fa612760565b600c60049054906101000a900473ffffffffffffffffffffffffffffffffffffffff16600e546040518463ffffffff1660e01b8152600401611a3e93929190614c5c565b6020604051808303816000875af1158015611a5d573d6000803e3d6000fd5b505050506040513d601f19601f82011682018060405250810190611a819190614ca8565b50505b81601060008563ffffffff1681526020019081526020016000206000019080519060200190611ab49291906138c7565b5080601060008563ffffffff1681526020019081526020016000206001019080519060200190611ae59291906138c7565b50505050565b6000808263ffffffff161015611b36576040517f08c379a0000000000000000000000000000000000000000000000000000000008152600401611b2d90614d21565b60405180910390fd5b8263ffffffff168463ffffffff161415611b85576040517f08c379a0000000000000000000000000000000000000000000000000000000008152600401611b7c90614d8d565b60405180910390fd5b60008385611b939190614dad565b63ffffffff16905062ffffff63ffffffff168167ffffffffffffffff161115611bce5762ffffff63ffffffff1681611bcb9190614dfb565b90505b611be18167ffffffffffffffff166126f4565b15611c795760005b8363ffffffff168163ffffffff161015611c7357600182611c0a9190614e2f565b915062ffffff63ffffffff168267ffffffffffffffff161115611c3f5762ffffff63ffffffff1682611c3c9190614dfb565b91505b611c528267ffffffffffffffff166126f4565b611c60578192505050611c87565b8080611c6b90614a2e565b915050611be9565b50611c82565b80915050611c87565b809150505b9392505050565b6000600a60009054906101000a900473ffffffffffffffffffffffffffffffffffffffff16905090565b606060018054611cc790614461565b80601f0160208091040260200160405190810160405280929190818152602001828054611cf390614461565b8015611d405780601f10611d1557610100808354040283529160200191611d40565b820191906000526020600020905b815481529060010190602001808311611d2357829003601f168201915b5050505050905090565b600f5481565b611d62611d5b612760565b8383612da0565b5050565b6000808263ffffffff161015611db1576040517f08c379a0000000000000000000000000000000000000000000000000000000008152600401611da890614d21565b60405180910390fd5b600f54341015611df6576040517f08c379a0000000000000000000000000000000000000000000000000000000008152600401611ded90614eb9565b60405180910390fd5b62ffffff63ffffffff166001611e0a610b7c565b611e1491906146e4565b1115611e55576040517f08c379a0000000000000000000000000000000000000000000000000000000008152600401611e4c90614a0e565b60405180910390fd5b611e648463ffffffff166126f4565b611ea3576040517f08c379a0000000000000000000000000000000000000000000000000000000008152600401611e9a90614f25565b60405180910390fd5b611eb28363ffffffff166126f4565b611ef1576040517f08c379a0000000000000000000000000000000000000000000000000000000008152600401611ee890614f91565b60405180910390fd5b6000611f028563ffffffff1661159b565b90506000611f158563ffffffff1661159b565b90508073ffffffffffffffffffffffffffffffffffffffff168273ffffffffffffffffffffffffffffffffffffffff1614611f5357611f52614c2d565b5b611f5b612760565b73ffffffffffffffffffffffffffffffffffffffff168173ffffffffffffffffffffffffffffffffffffffff1614611f9657611f95614c2d565b5b6000611fa3878787611aeb565b9050611fb48163ffffffff166126f4565b15611fc257611fc1614c2d565b5b6000611fcc612760565b9050611fde818363ffffffff16612b5b565b6040518060600160405280611ff88463ffffffff16610d11565b815260200161200c8463ffffffff16612b79565b815260200160011515815250601060008463ffffffff168152602001908152602001600020600082015181600001908051906020019061204d9291906138c7565b50602082015181600101908051906020019061206a9291906138c7565b5060408201518160020160006101000a81548160ff02191690831515021790555090505081600c60006101000a81548163ffffffff021916908363ffffffff160217905550819450505050509392505050565b600d60009054906101000a900473ffffffffffffffffffffffffffffffffffffffff1681565b62ffffff81565b6120fb6120f5612760565b83612821565b61213a576040517f08c379a00000000000000000000000000000000000000000000000000000000081526004016121319061487e565b60405180910390fd5b61214684848484612f0d565b50505050565b600062ffffff63ffffffff166001612162610b7c565b61216c91906146e4565b11156121ad576040517f08c379a00000000000000000000000000000000000000000000000000000000081526004016121a490614a0e565b60405180910390fd5b60008263ffffffff1610156121f7576040517f08c379a00000000000000000000000000000000000000000000000000000000081526004016121ee90614d21565b60405180910390fd5b6000612201612760565b9050600061220d610b7c565b9050600061221a82612f69565b9050600061222d8263ffffffff166126f4565b1561228a5760005b8663ffffffff168163ffffffff1610156122845761225284612f69565b92506122638363ffffffff166126f4565b6122705760019150612271565b5b808061227c90614a2e565b915050612235565b5061228f565b600190505b60011515811515146122d6576040517f08c379a00000000000000000000000000000000000000000000000000000000081526004016122cd90614ffd565b60405180910390fd5b6122e6848363ffffffff16612b5b565b60405180606001604052806123008463ffffffff16610d11565b81526020016123148463ffffffff16612b79565b815260200160011515815250601060008463ffffffff16815260200190815260200160002060008201518160000190805190602001906123559291906138c7565b5060208201518160010190805190602001906123729291906138c7565b5060408201518160020160006101000a81548160ff02191690831515021790555090505081600c60006101000a81548163ffffffff021916908363ffffffff16021790555081945050505050919050565b60606123ce826126f4565b61240d576040517f08c379a00000000000000000000000000000000000000000000000000000000081526004016124049061508f565b60405180910390fd5b6000612417612fba565b905060008151116124375760405180602001604052806000815250612462565b8061244184612b79565b6040516020016124529291906150eb565b6040516020818303038152906040525b915050919050565b600c60009054906101000a900463ffffffff1681565b6000600560008473ffffffffffffffffffffffffffffffffffffffff1673ffffffffffffffffffffffffffffffffffffffff16815260200190815260200160002060008373ffffffffffffffffffffffffffffffffffffffff1673ffffffffffffffffffffffffffffffffffffffff16815260200190815260200160002060009054906101000a900460ff16905092915050565b61251c612760565b73ffffffffffffffffffffffffffffffffffffffff1661253a611c8e565b73ffffffffffffffffffffffffffffffffffffffff1614612590576040517f08c379a000000000000000000000000000000000000000000000000000000000815260040161258790614695565b60405180910390fd5b600073ffffffffffffffffffffffffffffffffffffffff168173ffffffffffffffffffffffffffffffffffffffff161415612600576040517f08c379a00000000000000000000000000000000000000000000000000000000081526004016125f790615181565b60405180910390fd5b61260981612cda565b50565b600e5481565b60007f80ac58cd000000000000000000000000000000000000000000000000000000007bffffffffffffffffffffffffffffffffffffffffffffffffffffffff1916827bffffffffffffffffffffffffffffffffffffffffffffffffffffffff191614806126dd57507f5b5e139f000000000000000000000000000000000000000000000000000000007bffffffffffffffffffffffffffffffffffffffffffffffffffffffff1916827bffffffffffffffffffffffffffffffffffffffffffffffffffffffff1916145b806126ed57506126ec82612fd1565b5b9050919050565b60008073ffffffffffffffffffffffffffffffffffffffff166002600084815260200190815260200160002060009054906101000a900473ffffffffffffffffffffffffffffffffffffffff1673ffffffffffffffffffffffffffffffffffffffff1614159050919050565b600033905090565b816004600083815260200190815260200160002060006101000a81548173ffffffffffffffffffffffffffffffffffffffff021916908373ffffffffffffffffffffffffffffffffffffffff160217905550808273ffffffffffffffffffffffffffffffffffffffff166127db8361159b565b73ffffffffffffffffffffffffffffffffffffffff167f8c5be1e5ebec7d5bd14f71427d1e84f3dd0314c0f7b2291e5b200ac8c7c3b92560405160405180910390a45050565b600061282c826126f4565b61286b576040517f08c379a000000000000000000000000000000000000000000000000000000000815260040161286290615213565b60405180910390fd5b60006128768361159b565b90508073ffffffffffffffffffffffffffffffffffffffff168473ffffffffffffffffffffffffffffffffffffffff1614806128e557508373ffffffffffffffffffffffffffffffffffffffff166128cd846109df565b73ffffffffffffffffffffffffffffffffffffffff16145b806128f657506128f58185612480565b5b91505092915050565b8273ffffffffffffffffffffffffffffffffffffffff1661291f8261159b565b73ffffffffffffffffffffffffffffffffffffffff1614612975576040517f08c379a000000000000000000000000000000000000000000000000000000000815260040161296c906152a5565b60405180910390fd5b600073ffffffffffffffffffffffffffffffffffffffff168273ffffffffffffffffffffffffffffffffffffffff1614156129e5576040517f08c379a00000000000000000000000000000000000000000000000000000000081526004016129dc90615337565b60405180910390fd5b6129f083838361303b565b6129fb600082612768565b6001600360008573ffffffffffffffffffffffffffffffffffffffff1673ffffffffffffffffffffffffffffffffffffffff1681526020019081526020016000206000828254612a4b9190615357565b925050819055506001600360008473ffffffffffffffffffffffffffffffffffffffff1673ffffffffffffffffffffffffffffffffffffffff1681526020019081526020016000206000828254612aa291906146e4565b92505081905550816002600083815260200190815260200160002060006101000a81548173ffffffffffffffffffffffffffffffffffffffff021916908373ffffffffffffffffffffffffffffffffffffffff160217905550808273ffffffffffffffffffffffffffffffffffffffff168473ffffffffffffffffffffffffffffffffffffffff167fddf252ad1be2c89b69c2b068fc378daa952ba7f163c4a11628f55a4df523b3ef60405160405180910390a4505050565b612b7582826040518060200160405280600081525061314f565b5050565b60606000821415612bc1576040518060400160405280600181526020017f30000000000000000000000000000000000000000000000000000000000000008152509050612cd5565b600082905060005b60008214612bf3578080612bdc906147c3565b915050600a82612bec91906153ba565b9150612bc9565b60008167ffffffffffffffff811115612c0f57612c0e613e1c565b5b6040519080825280601f01601f191660200182016040528015612c415781602001600182028036833780820191505090505b5090505b60008514612cce57600182612c5a9190615357565b9150600a85612c6991906153eb565b6030612c7591906146e4565b60f81b818381518110612c8b57612c8a61473a565b5b60200101907effffffffffffffffffffffffffffffffffffffffffffffffffffffffffffff1916908160001a905350600a85612cc791906153ba565b9450612c45565b8093505050505b919050565b6000600a60009054906101000a900473ffffffffffffffffffffffffffffffffffffffff16905081600a60006101000a81548173ffffffffffffffffffffffffffffffffffffffff021916908373ffffffffffffffffffffffffffffffffffffffff1602179055508173ffffffffffffffffffffffffffffffffffffffff168173ffffffffffffffffffffffffffffffffffffffff167f8be0079c531659141344cd1fd0a4f28419497f9722a3daafe3b4186f6b6457e060405160405180910390a35050565b8173ffffffffffffffffffffffffffffffffffffffff168373ffffffffffffffffffffffffffffffffffffffff161415612e0f576040517f08c379a0000000000000000000000000000000000000000000000000000000008152600401612e0690615468565b60405180910390fd5b80600560008573ffffffffffffffffffffffffffffffffffffffff1673ffffffffffffffffffffffffffffffffffffffff16815260200190815260200160002060008473ffffffffffffffffffffffffffffffffffffffff1673ffffffffffffffffffffffffffffffffffffffff16815260200190815260200160002060006101000a81548160ff0219169083151502179055508173ffffffffffffffffffffffffffffffffffffffff168373ffffffffffffffffffffffffffffffffffffffff167f17307eab39ab6107e8899845ad3d59bd9653f200f220920489ca2b5937696c3183604051612f009190613a1e565b60405180910390a3505050565b612f188484846128ff565b612f24848484846131aa565b612f63576040517f08c379a0000000000000000000000000000000000000000000000000000000008152600401612f5a906154fa565b60405180910390fd5b50505050565b60008062ffffff612f78613332565b612f8291906153eb565b905062ffffff8342612f949190614769565b8263ffffffff16612fa591906146e4565b612faf91906153eb565b905080915050919050565b606060405180602001604052806000815250905090565b60007f01ffc9a7000000000000000000000000000000000000000000000000000000007bffffffffffffffffffffffffffffffffffffffffffffffffffffffff1916827bffffffffffffffffffffffffffffffffffffffffffffffffffffffff1916149050919050565b6130468383836133b8565b600073ffffffffffffffffffffffffffffffffffffffff168373ffffffffffffffffffffffffffffffffffffffff16141561308957613084816133bd565b6130c8565b8173ffffffffffffffffffffffffffffffffffffffff168373ffffffffffffffffffffffffffffffffffffffff16146130c7576130c68382613406565b5b5b600073ffffffffffffffffffffffffffffffffffffffff168273ffffffffffffffffffffffffffffffffffffffff16141561310b5761310681613573565b61314a565b8273ffffffffffffffffffffffffffffffffffffffff168273ffffffffffffffffffffffffffffffffffffffff1614613149576131488282613644565b5b5b505050565b61315983836136c3565b61316660008484846131aa565b6131a5576040517f08c379a000000000000000000000000000000000000000000000000000000000815260040161319c906154fa565b60405180910390fd5b505050565b60006131cb8473ffffffffffffffffffffffffffffffffffffffff16613891565b15613325578373ffffffffffffffffffffffffffffffffffffffff1663150b7a026131f4612760565b8786866040518563ffffffff1660e01b8152600401613216949392919061556f565b6020604051808303816000875af192505050801561325257506040513d601f19601f8201168201806040525081019061324f91906155d0565b60015b6132d5573d8060008114613282576040519150601f19603f3d011682016040523d82523d6000602084013e613287565b606091505b506000815114156132cd576040517f08c379a00000000000000000000000000000000000000000000000000000000081526004016132c4906154fa565b60405180910390fd5b805181602001fd5b63150b7a0260e01b7bffffffffffffffffffffffffffffffffffffffffffffffffffffffff1916817bffffffffffffffffffffffffffffffffffffffffffffffffffffffff19161491505061332a565b600190505b949350505050565b60004543416040516020016133479190615657565b6040516020818303038152906040528051906020012060001c61336a91906153ba565b444261337691906146e4565b6040516020016133869190615693565b6040516020818303038152906040528051906020012060001c6133a991906146e4565b6133b391906146e4565b905090565b505050565b6008805490506009600083815260200190815260200160002081905550600881908060018154018082558091505060019003906000526020600020016000909190919091505550565b60006001613413846116db565b61341d9190615357565b9050600060076000848152602001908152602001600020549050818114613502576000600660008673ffffffffffffffffffffffffffffffffffffffff1673ffffffffffffffffffffffffffffffffffffffff168152602001908152602001600020600084815260200190815260200160002054905080600660008773ffffffffffffffffffffffffffffffffffffffff1673ffffffffffffffffffffffffffffffffffffffff168152602001908152602001600020600084815260200190815260200160002081905550816007600083815260200190815260200160002081905550505b6007600084815260200190815260200160002060009055600660008573ffffffffffffffffffffffffffffffffffffffff1673ffffffffffffffffffffffffffffffffffffffff16815260200190815260200160002060008381526020019081526020016000206000905550505050565b600060016008805490506135879190615357565b90506000600960008481526020019081526020016000205490506000600883815481106135b7576135b661473a565b5b9060005260206000200154905080600883815481106135d9576135d861473a565b5b906000526020600020018190555081600960008381526020019081526020016000208190555060096000858152602001908152602001600020600090556008805480613628576136276156ae565b5b6001900381819060005260206000200160009055905550505050565b600061364f836116db565b905081600660008573ffffffffffffffffffffffffffffffffffffffff1673ffffffffffffffffffffffffffffffffffffffff168152602001908152602001600020600083815260200190815260200160002081905550806007600084815260200190815260200160002081905550505050565b600073ffffffffffffffffffffffffffffffffffffffff168273ffffffffffffffffffffffffffffffffffffffff161415613733576040517f08c379a000000000000000000000000000000000000000000000000000000000815260040161372a90615729565b60405180910390fd5b61373c816126f4565b1561377c576040517f08c379a000000000000000000000000000000000000000000000000000000000815260040161377390615795565b60405180910390fd5b6137886000838361303b565b6001600360008473ffffffffffffffffffffffffffffffffffffffff1673ffffffffffffffffffffffffffffffffffffffff16815260200190815260200160002060008282546137d891906146e4565b92505081905550816002600083815260200190815260200160002060006101000a81548173ffffffffffffffffffffffffffffffffffffffff021916908373ffffffffffffffffffffffffffffffffffffffff160217905550808273ffffffffffffffffffffffffffffffffffffffff16600073ffffffffffffffffffffffffffffffffffffffff167fddf252ad1be2c89b69c2b068fc378daa952ba7f163c4a11628f55a4df523b3ef60405160405180910390a45050565b600080823b905060008111915050919050565b604051806060016040528060608152602001606081526020016000151581525090565b8280546138d390614461565b90600052602060002090601f0160209004810192826138f5576000855561393c565b82601f1061390e57805160ff191683800117855561393c565b8280016001018555821561393c579182015b8281111561393b578251825591602001919060010190613920565b5b509050613949919061394d565b5090565b5b8082111561396657600081600090555060010161394e565b5090565b6000604051905090565b600080fd5b600080fd5b60007fffffffff0000000000000000000000000000000000000000000000000000000082169050919050565b6139b38161397e565b81146139be57600080fd5b50565b6000813590506139d0816139aa565b92915050565b6000602082840312156139ec576139eb613974565b5b60006139fa848285016139c1565b91505092915050565b60008115159050919050565b613a1881613a03565b82525050565b6000602082019050613a336000830184613a0f565b92915050565b600081519050919050565b600082825260208201905092915050565b60005b83811015613a73578082015181840152602081019050613a58565b83811115613a82576000848401525b50505050565b6000601f19601f8301169050919050565b6000613aa482613a39565b613aae8185613a44565b9350613abe818560208601613a55565b613ac781613a88565b840191505092915050565b60006020820190508181036000830152613aec8184613a99565b905092915050565b6000819050919050565b613b0781613af4565b8114613b1257600080fd5b50565b600081359050613b2481613afe565b92915050565b600060208284031215613b4057613b3f613974565b5b6000613b4e84828501613b15565b91505092915050565b600073ffffffffffffffffffffffffffffffffffffffff82169050919050565b6000613b8282613b57565b9050919050565b613b9281613b77565b82525050565b6000602082019050613bad6000830184613b89565b92915050565b613bbc81613b77565b8114613bc757600080fd5b50565b600081359050613bd981613bb3565b92915050565b60008060408385031215613bf657613bf5613974565b5b6000613c0485828601613bca565b9250506020613c1585828601613b15565b9150509250929050565b613c2881613af4565b82525050565b6000602082019050613c436000830184613c1f565b92915050565b60008060408385031215613c6057613c5f613974565b5b6000613c6e85828601613bca565b9250506020613c7f85828601613bca565b9150509250929050565b600080600060608486031215613ca257613ca1613974565b5b6000613cb086828701613bca565b9350506020613cc186828701613bca565b9250506040613cd286828701613b15565b9150509250925092565b600063ffffffff82169050919050565b613cf581613cdc565b8114613d0057600080fd5b50565b600081359050613d1281613cec565b92915050565b600060208284031215613d2e57613d2d613974565b5b6000613d3c84828501613d03565b91505092915050565b600082825260208201905092915050565b6000613d6182613a39565b613d6b8185613d45565b9350613d7b818560208601613a55565b613d8481613a88565b840191505092915050565b613d9881613a03565b82525050565b60006060830160008301518482036000860152613dbb8282613d56565b91505060208301518482036020860152613dd58282613d56565b9150506040830151613dea6040860182613d8f565b508091505092915050565b60006020820190508181036000830152613e0f8184613d9e565b905092915050565b600080fd5b7f4e487b7100000000000000000000000000000000000000000000000000000000600052604160045260246000fd5b613e5482613a88565b810181811067ffffffffffffffff82111715613e7357613e72613e1c565b5b80604052505050565b6000613e8661396a565b9050613e928282613e4b565b919050565b600067ffffffffffffffff821115613eb257613eb1613e1c565b5b602082029050602081019050919050565b600080fd5b6000613edb613ed684613e97565b613e7c565b90508083825260208201905060208402830185811115613efe57613efd613ec3565b5b835b81811015613f275780613f138882613d03565b845260208401935050602081019050613f00565b5050509392505050565b600082601f830112613f4657613f45613e17565b5b8135613f56848260208601613ec8565b91505092915050565b600067ffffffffffffffff821115613f7a57613f79613e1c565b5b602082029050602081019050919050565b600080fd5b600067ffffffffffffffff821115613fab57613faa613e1c565b5b613fb482613a88565b9050602081019050919050565b82818337600083830152505050565b6000613fe3613fde84613f90565b613e7c565b905082815260208101848484011115613fff57613ffe613f8b565b5b61400a848285613fc1565b509392505050565b600082601f83011261402757614026613e17565b5b8135614037848260208601613fd0565b91505092915050565b600061405361404e84613f5f565b613e7c565b9050808382526020820190506020840283018581111561407657614075613ec3565b5b835b818110156140bd57803567ffffffffffffffff81111561409b5761409a613e17565b5b8086016140a88982614012565b85526020850194505050602081019050614078565b5050509392505050565b600082601f8301126140dc576140db613e17565b5b81356140ec848260208601614040565b91505092915050565b6000806040838503121561410c5761410b613974565b5b600083013567ffffffffffffffff81111561412a57614129613979565b5b61413685828601613f31565b925050602083013567ffffffffffffffff81111561415757614156613979565b5b614163858286016140c7565b9150509250929050565b60006020828403121561418357614182613974565b5b600061419184828501613bca565b91505092915050565b6000806000606084860312156141b3576141b2613974565b5b60006141c186828701613d03565b935050602084013567ffffffffffffffff8111156141e2576141e1613979565b5b6141ee86828701614012565b925050604084013567ffffffffffffffff81111561420f5761420e613979565b5b61421b86828701614012565b9150509250925092565b60008060006060848603121561423e5761423d613974565b5b600061424c86828701613d03565b935050602061425d86828701613d03565b925050604061426e86828701613d03565b9150509250925092565b61428181613cdc565b82525050565b600060208201905061429c6000830184614278565b92915050565b6142ab81613a03565b81146142b657600080fd5b50565b6000813590506142c8816142a2565b92915050565b600080604083850312156142e5576142e4613974565b5b60006142f385828601613bca565b9250506020614304858286016142b9565b9150509250929050565b600067ffffffffffffffff82111561432957614328613e1c565b5b61433282613a88565b9050602081019050919050565b600061435261434d8461430e565b613e7c565b90508281526020810184848401111561436e5761436d613f8b565b5b614379848285613fc1565b509392505050565b600082601f83011261439657614395613e17565b5b81356143a684826020860161433f565b91505092915050565b600080600080608085870312156143c9576143c8613974565b5b60006143d787828801613bca565b94505060206143e887828801613bca565b93505060406143f987828801613b15565b925050606085013567ffffffffffffffff81111561441a57614419613979565b5b61442687828801614381565b91505092959194509250565b7f4e487b7100000000000000000000000000000000000000000000000000000000600052602260045260246000fd5b6000600282049050600182168061447957607f821691505b6020821081141561448d5761448c614432565b5b50919050565b7f4552433732313a20617070726f76656420717565727920666f72206e6f6e657860008201527f697374656e7420746f6b656e0000000000000000000000000000000000000000602082015250565b60006144ef602c83613a44565b91506144fa82614493565b604082019050919050565b6000602082019050818103600083015261451e816144e2565b9050919050565b7f4552433732313a20617070726f76616c20746f2063757272656e74206f776e6560008201527f7200000000000000000000000000000000000000000000000000000000000000602082015250565b6000614581602183613a44565b915061458c82614525565b604082019050919050565b600060208201905081810360008301526145b081614574565b9050919050565b7f4552433732313a20617070726f76652063616c6c6572206973206e6f74206f7760008201527f6e6572206e6f7220617070726f76656420666f7220616c6c0000000000000000602082015250565b6000614613603883613a44565b915061461e826145b7565b604082019050919050565b6000602082019050818103600083015261464281614606565b9050919050565b7f4f776e61626c653a2063616c6c6572206973206e6f7420746865206f776e6572600082015250565b600061467f602083613a44565b915061468a82614649565b602082019050919050565b600060208201905081810360008301526146ae81614672565b9050919050565b7f4e487b7100000000000000000000000000000000000000000000000000000000600052601160045260246000fd5b60006146ef82613af4565b91506146fa83613af4565b9250827fffffffffffffffffffffffffffffffffffffffffffffffffffffffffffffffff0382111561472f5761472e6146b5565b5b828201905092915050565b7f4e487b7100000000000000000000000000000000000000000000000000000000600052603260045260246000fd5b600061477482613af4565b915061477f83613af4565b9250817fffffffffffffffffffffffffffffffffffffffffffffffffffffffffffffffff04831182151516156147b8576147b76146b5565b5b828202905092915050565b60006147ce82613af4565b91507fffffffffffffffffffffffffffffffffffffffffffffffffffffffffffffffff821415614801576148006146b5565b5b600182019050919050565b7f4552433732313a207472616e736665722063616c6c6572206973206e6f74206f60008201527f776e6572206e6f7220617070726f766564000000000000000000000000000000602082015250565b6000614868603183613a44565b91506148738261480c565b604082019050919050565b600060208201905081810360008301526148978161485b565b9050919050565b7f455243373231456e756d657261626c653a206f776e657220696e646578206f7560008201527f74206f6620626f756e6473000000000000000000000000000000000000000000602082015250565b60006148fa602b83613a44565b91506149058261489e565b604082019050919050565b60006020820190508181036000830152614929816148ed565b9050919050565b7f455243373231456e756d657261626c653a20676c6f62616c20696e646578206f60008201527f7574206f6620626f756e64730000000000000000000000000000000000000000602082015250565b600061498c602c83613a44565b915061499782614930565b604082019050919050565b600060208201905081810360008301526149bb8161497f565b9050919050565b7f4d617820737570706c79206f6620436f6c6f7273000000000000000000000000600082015250565b60006149f8601483613a44565b9150614a03826149c2565b602082019050919050565b60006020820190508181036000830152614a27816149eb565b9050919050565b6000614a3982613cdc565b915063ffffffff821415614a5057614a4f6146b5565b5b600182019050919050565b7f4552433732313a206f776e657220717565727920666f72206e6f6e657869737460008201527f656e7420746f6b656e0000000000000000000000000000000000000000000000602082015250565b6000614ab7602983613a44565b9150614ac282614a5b565b604082019050919050565b60006020820190508181036000830152614ae681614aaa565b9050919050565b7f4552433732313a2062616c616e636520717565727920666f7220746865207a6560008201527f726f206164647265737300000000000000000000000000000000000000000000602082015250565b6000614b49602a83613a44565b9150614b5482614aed565b604082019050919050565b60006020820190508181036000830152614b7881614b3c565b9050919050565b7f436f6c6f7220646f73656e277420657869737400000000000000000000000000600082015250565b6000614bb5601383613a44565b9150614bc082614b7f565b602082019050919050565b60006020820190508181036000830152614be481614ba8565b9050919050565b600081519050614bfa81613afe565b92915050565b600060208284031215614c1657614c15613974565b5b6000614c2484828501614beb565b91505092915050565b7f4e487b7100000000000000000000000000000000000000000000000000000000600052600160045260246000fd5b6000606082019050614c716000830186613b89565b614c7e6020830185613b89565b614c8b6040830184613c1f565b949350505050565b600081519050614ca2816142a2565b92915050565b600060208284031215614cbe57614cbd613974565b5b6000614ccc84828501614c93565b91505092915050565b7f697465726174696f6e436f756e74206e656564206d696e696d756d2030000000600082015250565b6000614d0b601d83613a44565b9150614d1682614cd5565b602082019050919050565b60006020820190508181036000830152614d3a81614cfe565b9050919050565b7f636f6c6f72436f64653020213d20636f6c6f72436f6465310000000000000000600082015250565b6000614d77601883613a44565b9150614d8282614d41565b602082019050919050565b60006020820190508181036000830152614da681614d6a565b9050919050565b6000614db882613cdc565b9150614dc383613cdc565b92508263ffffffff03821115614ddc57614ddb6146b5565b5b828201905092915050565b600067ffffffffffffffff82169050919050565b6000614e0682614de7565b9150614e1183614de7565b925082821015614e2457614e236146b5565b5b828203905092915050565b6000614e3a82614de7565b9150614e4583614de7565b92508267ffffffffffffffff03821115614e6257614e616146b5565b5b828201905092915050565b7f76616c756520213d204d61726765436f6d6d6973696f6e000000000000000000600082015250565b6000614ea3601783613a44565b9150614eae82614e6d565b602082019050919050565b60006020820190508181036000830152614ed281614e96565b9050919050565b7f636f6c6f72436f646530206e6f74206578697374000000000000000000000000600082015250565b6000614f0f601483613a44565b9150614f1a82614ed9565b602082019050919050565b60006020820190508181036000830152614f3e81614f02565b9050919050565b7f636f6c6f72436f646531206e6f74206578697374000000000000000000000000600082015250565b6000614f7b601483613a44565b9150614f8682614f45565b602082019050919050565b60006020820190508181036000830152614faa81614f6e565b9050919050565b7f67656e65726174696f6e536563637365737320213d2074727565000000000000600082015250565b6000614fe7601a83613a44565b9150614ff282614fb1565b602082019050919050565b6000602082019050818103600083015261501681614fda565b9050919050565b7f4552433732314d657461646174613a2055524920717565727920666f72206e6f60008201527f6e6578697374656e7420746f6b656e0000000000000000000000000000000000602082015250565b6000615079602f83613a44565b91506150848261501d565b604082019050919050565b600060208201905081810360008301526150a88161506c565b9050919050565b600081905092915050565b60006150c582613a39565b6150cf81856150af565b93506150df818560208601613a55565b80840191505092915050565b60006150f782856150ba565b915061510382846150ba565b91508190509392505050565b7f4f776e61626c653a206e6577206f776e657220697320746865207a65726f206160008201527f6464726573730000000000000000000000000000000000000000000000000000602082015250565b600061516b602683613a44565b91506151768261510f565b604082019050919050565b6000602082019050818103600083015261519a8161515e565b9050919050565b7f4552433732313a206f70657261746f7220717565727920666f72206e6f6e657860008201527f697374656e7420746f6b656e0000000000000000000000000000000000000000602082015250565b60006151fd602c83613a44565b9150615208826151a1565b604082019050919050565b6000602082019050818103600083015261522c816151f0565b9050919050565b7f4552433732313a207472616e73666572206f6620746f6b656e2074686174206960008201527f73206e6f74206f776e0000000000000000000000000000000000000000000000602082015250565b600061528f602983613a44565b915061529a82615233565b604082019050919050565b600060208201905081810360008301526152be81615282565b9050919050565b7f4552433732313a207472616e7366657220746f20746865207a65726f2061646460008201527f7265737300000000000000000000000000000000000000000000000000000000602082015250565b6000615321602483613a44565b915061532c826152c5565b604082019050919050565b6000602082019050818103600083015261535081615314565b9050919050565b600061536282613af4565b915061536d83613af4565b9250828210156153805761537f6146b5565b5b828203905092915050565b7f4e487b7100000000000000000000000000000000000000000000000000000000600052601260045260246000fd5b60006153c582613af4565b91506153d083613af4565b9250826153e0576153df61538b565b5b828204905092915050565b60006153f682613af4565b915061540183613af4565b9250826154115761541061538b565b5b828206905092915050565b7f4552433732313a20617070726f766520746f2063616c6c657200000000000000600082015250565b6000615452601983613a44565b915061545d8261541c565b602082019050919050565b6000602082019050818103600083015261548181615445565b9050919050565b7f4552433732313a207472616e7366657220746f206e6f6e20455243373231526560008201527f63656976657220696d706c656d656e7465720000000000000000000000000000602082015250565b60006154e4603283613a44565b91506154ef82615488565b604082019050919050565b60006020820190508181036000830152615513816154d7565b9050919050565b600081519050919050565b600082825260208201905092915050565b60006155418261551a565b61554b8185615525565b935061555b818560208601613a55565b61556481613a88565b840191505092915050565b60006080820190506155846000830187613b89565b6155916020830186613b89565b61559e6040830185613c1f565b81810360608301526155b08184615536565b905095945050505050565b6000815190506155ca816139aa565b92915050565b6000602082840312156155e6576155e5613974565b5b60006155f4848285016155bb565b91505092915050565b600061560882613b57565b9050919050565b60008160601b9050919050565b60006156278261560f565b9050919050565b60006156398261561c565b9050919050565b61565161564c826155fd565b61562e565b82525050565b60006156638284615640565b60148201915081905092915050565b6000819050919050565b61568d61568882613af4565b615672565b82525050565b600061569f828461567c565b60208201915081905092915050565b7f4e487b7100000000000000000000000000000000000000000000000000000000600052603160045260246000fd5b7f4552433732313a206d696e7420746f20746865207a65726f2061646472657373600082015250565b6000615713602083613a44565b915061571e826156dd565b602082019050919050565b6000602082019050818103600083015261574281615706565b9050919050565b7f4552433732313a20746f6b656e20616c7265616479206d696e74656400000000600082015250565b600061577f601c83613a44565b915061578a82615749565b602082019050919050565b600060208201905081810360008301526157ae81615772565b905091905056fea26469706673582212206c74ce8f7cf4b49b120978767efec52243a88a03ed81c38c0351e9040de2e5f264736f6c634300080b0033",
  "immutableReferences": {},
  "source": "// SPDX-License-Identifier: MIT\npragma solidity ^0.8.0;\nimport \"@openzeppelin/contracts/access/Ownable.sol\";\nimport \"@openzeppelin/contracts/utils/math/SafeMath.sol\";\nimport \"@openzeppelin/contracts/utils/math/SafeCast.sol\";\nimport \"@openzeppelin/contracts/utils/Strings.sol\";\nimport \"@openzeppelin/contracts/token/ERC721/extensions/ERC721Enumerable.sol\";\n\ncontract ColorsContract is ERC721Enumerable, Ownable {\n    using Strings for uint256;\n    using Strings for uint32;\n\n    struct Color {\n        string title;\n        string metadata;\n        bool isValue;\n    }\n\n    uint32 public constant MaxColors = 16777215;\n    string public Debug = \"Null\";\n    uint32 public LastColorHex = 0;\n\n    address public ROKSWallet = address(0);\n    address public ROKSContract = address(0);\n\n    uint256 public RocksCommision = 0;\n    uint256 public MargeCommision = 0;\n\n    mapping(uint256 => Color) private _colorsInfo;\n\n    event StateChanged(string stateData);\n\n    constructor() ERC721(\"The Colors (thecolors.art)\", \"COLORS\") {\n        emit StateChanged(\"Init\");\n    }\n\n    function setROKS(address contractAddress, address rOKSWallet)\n        public\n        onlyOwner\n    {\n        ROKSContract = contractAddress;\n        ROKSWallet = rOKSWallet;\n    }\n\n    function setROKSCommision(uint256 rocksCommision) public onlyOwner {\n        RocksCommision = rocksCommision;\n    }\n\n    function setMargeCommision(uint256 margeCommision) public onlyOwner {\n        MargeCommision = margeCommision;\n    }\n\n    /*\n     *  \n     */\n    function mintColors(uint32[] memory colorCodes, string[] memory titles)\n        public\n        onlyOwner\n    {\n        require(\n            totalSupply() + colorCodes.length <= MaxColors,\n            \"Max supply of Colors\"\n        );\n\n        address tokenOwner = _msgSender();\n\n        for (uint32 i = 0; i < colorCodes.length; i++) {\n            if (!_exists(colorCodes[i]) && colorCodes[i] <= MaxColors) {\n                _safeMint(tokenOwner, colorCodes[i]);\n                _colorsInfo[colorCodes[i]] = Color(\n                    titles[i],\n                    colorCodes[i].toString(),\n                    true\n                );\n            }\n        }\n    }\n\n    /*\n     *   ()\n     * iterationCount -         \n     */\n    function margeColors(\n        uint32 colorCode0,\n        uint32 colorCode1,\n        uint32 iterationCount\n    ) public payable returns (uint32) {\n        //   \n        require(iterationCount >= 0, \"iterationCount need minimum 0\");\n        require(msg.value >= MargeCommision, \"value != MargeCommision\");\n\n        require(totalSupply() + 1 <= MaxColors, \"Max supply of Colors\");\n        require(_exists(colorCode0), \"colorCode0 not exist\");\n        require(_exists(colorCode1), \"colorCode1 not exist\");\n\n        address owner0 = ownerOf(colorCode0);\n        address owner1 = ownerOf(colorCode1);\n\n        assert(owner0 == owner1);\n        assert(owner1 == _msgSender());\n\n        uint32 mageResult = predictColorAfterMarge(\n            colorCode0,\n            colorCode1,\n            iterationCount\n        );\n\n        //     \n        //    \n        assert(!_exists(mageResult));\n\n        address tokenOwner = _msgSender();\n        _safeMint(tokenOwner, mageResult);\n        _colorsInfo[mageResult] = Color(\n            uintToHexString(mageResult),\n            mageResult.toString(),\n            true\n        );\n\n        LastColorHex = mageResult;\n        return mageResult;\n    }\n\n    //       \n    //      \n    function predictColorAfterMarge(\n        uint32 colorCode0,\n        uint32 colorCode1,\n        uint32 iterationCount\n    ) public view returns (uint32) {\n        require(iterationCount >= 0, \"iterationCount need minimum 0\");\n        require(colorCode0 != colorCode1, \"colorCode0 != colorCode1\");\n        uint64 mageResult = colorCode0 + colorCode1;\n        //16777215, 16777214\n        if (mageResult > MaxColors) {\n            mageResult = mageResult - MaxColors;\n        }\n\n        if (_exists(mageResult)) {\n            for (uint32 i = 0; i < iterationCount; i++) {\n                //        \n                mageResult = mageResult + 1;\n                if (mageResult > MaxColors) {\n                    mageResult = mageResult - MaxColors;\n                }\n\n                if (!_exists(mageResult)) {\n                    return uint32(mageResult);\n                }\n            }\n        } else {\n            return uint32(mageResult);\n        }\n\n        return uint32(mageResult);\n    }\n\n    /*\n     *  ()\n     * colorCode -   \n     * title - \n     * metadata -  \n     */\n    function setInfo(\n        uint32 colorCode,\n        string memory title,\n        string memory metadata\n    ) public {\n        require(_exists(colorCode), \"Color dosen't exist\");\n\n        if (ROKSContract != address(0) && ROKSWallet != address(0)) {\n            ERC20 roks = ERC20(ROKSContract);\n            assert(roks.balanceOf(_msgSender()) >= RocksCommision);\n            roks.transferFrom(_msgSender(), ROKSWallet, RocksCommision);\n        }\n\n        _colorsInfo[colorCode].title = title;\n        _colorsInfo[colorCode].metadata = metadata;\n    }\n\n    /*\n     *   (   ) 100  \n     * iterationCount -         \n     */\n    function mintRandomColor(uint32 iterationCount) public returns (uint32) {\n        require(totalSupply() + 1 <= MaxColors, \"Max supply of Colors\");\n        require(iterationCount >= 0, \"iterationCount need minimum 0\");\n\n        address tokenOwner = _msgSender();\n        uint256 mintIndex = totalSupply();\n        uint32 colorCode = generateRandomHexColor(mintIndex);\n        bool generationSeccsess = false;\n\n        if (_exists(colorCode)) {\n            //        \n            for (uint32 i = 0; i < iterationCount; i++) {\n                colorCode = generateRandomHexColor(mintIndex);\n\n                if (!_exists(colorCode)) {\n                    generationSeccsess = true;\n                    continue;\n                }\n            }\n        } else {\n            generationSeccsess = true;\n        }\n\n        //     \n        //    \n        require(generationSeccsess == true, \"generationSeccsess != true\");\n\n        _safeMint(tokenOwner, colorCode);\n        _colorsInfo[colorCode] = Color(\n            uintToHexString(colorCode),\n            colorCode.toString(),\n            true\n        );\n\n        LastColorHex = colorCode;\n        return colorCode;\n    }\n\n    function getColorInfo(uint32 colorCode) public view returns (Color memory) {\n        return _colorsInfo[colorCode];\n    }\n\n    function generateRandomHexColor(uint256 tokenId)\n        internal\n        view\n        returns (uint32)\n    {\n        uint32 hexColor = uint32(_rng() % 16777215);\n\n        hexColor = uint32(\n            uint256(hexColor + block.timestamp * tokenId) % 16777215\n        );\n\n        return hexColor;\n    }\n\n    function _rng() internal view returns (uint256) {\n        return\n            uint256(\n                keccak256(abi.encodePacked(block.timestamp + block.difficulty))\n            ) +\n            uint256(keccak256(abi.encodePacked(block.coinbase))) /\n            block.number +\n            block.gaslimit;\n    }\n\n    function uintToHexString(uint256 number)\n        public\n        pure\n        returns (string memory)\n    {\n        bytes32 value = bytes32(number);\n        bytes memory alphabet = \"0123456789abcdef\";\n\n        bytes memory str = new bytes(6);\n        for (uint256 i = 0; i < 3; i++) {\n            str[i * 2] = alphabet[uint256(uint8(value[i + 29] >> 4))];\n            str[1 + i * 2] = alphabet[uint256(uint8(value[i + 29] & 0x0f))];\n        }\n\n        return string(str);\n    }\n    // constructor function\n}\n\ninterface ERC20 {\n    function totalSupply() external view returns (uint256);\n\n    function balanceOf(address _who) external view returns (uint256);\n\n    function transfer(address _to, uint256 _value) external returns (bool);\n\n    function transferFrom(\n        address _from,\n        address _to,\n        uint256 _value\n    ) external returns (bool);\n\n    function approve(address _spender, uint256 _value) external returns (bool);\n\n    function allowance(address _owner, address _spender)\n        external\n        view\n        returns (uint256);\n\n    event Transfer(address indexed from, address indexed to, uint256 value);\n    event Approval(\n        address indexed _owner,\n        address indexed _spender,\n        uint256 _value\n    );\n}\n",
  "sourcePath": "/Users/roman/Documents/colorscontract/contracts/ColorsContract.sol",
  "compiler": {
    "name": "solc",
    "version": "0.8.11+commit.d7f03943.Emscripten.clang"
  },
  "schemaVersion": "3.4.4",
  "updatedAt": "2022-01-03T20:35:22.342Z",
  "devdoc": {
    "kind": "dev",
    "methods": {
      "approve(address,uint256)": {
        "details": "See {IERC721-approve}."
      },
      "balanceOf(address)": {
        "details": "See {IERC721-balanceOf}."
      },
      "getApproved(uint256)": {
        "details": "See {IERC721-getApproved}."
      },
      "isApprovedForAll(address,address)": {
        "details": "See {IERC721-isApprovedForAll}."
      },
      "name()": {
        "details": "See {IERC721Metadata-name}."
      },
      "owner()": {
        "details": "Returns the address of the current owner."
      },
      "ownerOf(uint256)": {
        "details": "See {IERC721-ownerOf}."
      },
      "renounceOwnership()": {
        "details": "Leaves the contract without owner. It will not be possible to call `onlyOwner` functions anymore. Can only be called by the current owner. NOTE: Renouncing ownership will leave the contract without an owner, thereby removing any functionality that is only available to the owner."
      },
      "safeTransferFrom(address,address,uint256)": {
        "details": "See {IERC721-safeTransferFrom}."
      },
      "safeTransferFrom(address,address,uint256,bytes)": {
        "details": "See {IERC721-safeTransferFrom}."
      },
      "setApprovalForAll(address,bool)": {
        "details": "See {IERC721-setApprovalForAll}."
      },
      "supportsInterface(bytes4)": {
        "details": "See {IERC165-supportsInterface}."
      },
      "symbol()": {
        "details": "See {IERC721Metadata-symbol}."
      },
      "tokenByIndex(uint256)": {
        "details": "See {IERC721Enumerable-tokenByIndex}."
      },
      "tokenOfOwnerByIndex(address,uint256)": {
        "details": "See {IERC721Enumerable-tokenOfOwnerByIndex}."
      },
      "tokenURI(uint256)": {
        "details": "See {IERC721Metadata-tokenURI}."
      },
      "totalSupply()": {
        "details": "See {IERC721Enumerable-totalSupply}."
      },
      "transferFrom(address,address,uint256)": {
        "details": "See {IERC721-transferFrom}."
      },
      "transferOwnership(address)": {
        "details": "Transfers ownership of the contract to a new account (`newOwner`). Can only be called by the current owner."
      }
    },
    "version": 1
  },
  "userdoc": {
    "kind": "user",
    "methods": {},
    "version": 1
  }
}