{
  "contractName": "OldColorsContract",
  "abi": [
    {
      "inputs": [],
      "stateMutability": "nonpayable",
      "type": "constructor"
    },
    {
      "anonymous": false,
      "inputs": [
        {
          "indexed": true,
          "internalType": "address",
          "name": "owner",
          "type": "address"
        },
        {
          "indexed": true,
          "internalType": "address",
          "name": "approved",
          "type": "address"
        },
        {
          "indexed": true,
          "internalType": "uint256",
          "name": "tokenId",
          "type": "uint256"
        }
      ],
      "name": "Approval",
      "type": "event"
    },
    {
      "anonymous": false,
      "inputs": [
        {
          "indexed": true,
          "internalType": "address",
          "name": "owner",
          "type": "address"
        },
        {
          "indexed": true,
          "internalType": "address",
          "name": "operator",
          "type": "address"
        },
        {
          "indexed": false,
          "internalType": "bool",
          "name": "approved",
          "type": "bool"
        }
      ],
      "name": "ApprovalForAll",
      "type": "event"
    },
    {
      "anonymous": false,
      "inputs": [
        {
          "indexed": true,
          "internalType": "address",
          "name": "previousOwner",
          "type": "address"
        },
        {
          "indexed": true,
          "internalType": "address",
          "name": "newOwner",
          "type": "address"
        }
      ],
      "name": "OwnershipTransferred",
      "type": "event"
    },
    {
      "anonymous": false,
      "inputs": [
        {
          "indexed": false,
          "internalType": "string",
          "name": "stateData",
          "type": "string"
        }
      ],
      "name": "StateChanged",
      "type": "event"
    },
    {
      "anonymous": false,
      "inputs": [
        {
          "indexed": true,
          "internalType": "address",
          "name": "from",
          "type": "address"
        },
        {
          "indexed": true,
          "internalType": "address",
          "name": "to",
          "type": "address"
        },
        {
          "indexed": true,
          "internalType": "uint256",
          "name": "tokenId",
          "type": "uint256"
        }
      ],
      "name": "Transfer",
      "type": "event"
    },
    {
      "inputs": [],
      "name": "RequestMessage",
      "outputs": [
        {
          "internalType": "string",
          "name": "",
          "type": "string"
        }
      ],
      "stateMutability": "view",
      "type": "function"
    },
    {
      "inputs": [],
      "name": "Requestor",
      "outputs": [
        {
          "internalType": "address",
          "name": "",
          "type": "address"
        }
      ],
      "stateMutability": "view",
      "type": "function"
    },
    {
      "inputs": [],
      "name": "Responder",
      "outputs": [
        {
          "internalType": "address",
          "name": "",
          "type": "address"
        }
      ],
      "stateMutability": "view",
      "type": "function"
    },
    {
      "inputs": [],
      "name": "ResponseMessage",
      "outputs": [
        {
          "internalType": "string",
          "name": "",
          "type": "string"
        }
      ],
      "stateMutability": "view",
      "type": "function"
    },
    {
      "inputs": [],
      "name": "State",
      "outputs": [
        {
          "internalType": "enum OldColorsContract.StateType",
          "name": "",
          "type": "uint8"
        }
      ],
      "stateMutability": "view",
      "type": "function"
    },
    {
      "inputs": [
        {
          "internalType": "address",
          "name": "to",
          "type": "address"
        },
        {
          "internalType": "uint256",
          "name": "tokenId",
          "type": "uint256"
        }
      ],
      "name": "approve",
      "outputs": [],
      "stateMutability": "nonpayable",
      "type": "function"
    },
    {
      "inputs": [
        {
          "internalType": "address",
          "name": "owner",
          "type": "address"
        }
      ],
      "name": "balanceOf",
      "outputs": [
        {
          "internalType": "uint256",
          "name": "",
          "type": "uint256"
        }
      ],
      "stateMutability": "view",
      "type": "function"
    },
    {
      "inputs": [
        {
          "internalType": "uint256",
          "name": "tokenId",
          "type": "uint256"
        }
      ],
      "name": "getApproved",
      "outputs": [
        {
          "internalType": "address",
          "name": "",
          "type": "address"
        }
      ],
      "stateMutability": "view",
      "type": "function"
    },
    {
      "inputs": [
        {
          "internalType": "address",
          "name": "owner",
          "type": "address"
        },
        {
          "internalType": "address",
          "name": "operator",
          "type": "address"
        }
      ],
      "name": "isApprovedForAll",
      "outputs": [
        {
          "internalType": "bool",
          "name": "",
          "type": "bool"
        }
      ],
      "stateMutability": "view",
      "type": "function"
    },
    {
      "inputs": [],
      "name": "name",
      "outputs": [
        {
          "internalType": "string",
          "name": "",
          "type": "string"
        }
      ],
      "stateMutability": "view",
      "type": "function"
    },
    {
      "inputs": [],
      "name": "owner",
      "outputs": [
        {
          "internalType": "address",
          "name": "",
          "type": "address"
        }
      ],
      "stateMutability": "view",
      "type": "function"
    },
    {
      "inputs": [
        {
          "internalType": "uint256",
          "name": "tokenId",
          "type": "uint256"
        }
      ],
      "name": "ownerOf",
      "outputs": [
        {
          "internalType": "address",
          "name": "",
          "type": "address"
        }
      ],
      "stateMutability": "view",
      "type": "function"
    },
    {
      "inputs": [],
      "name": "renounceOwnership",
      "outputs": [],
      "stateMutability": "nonpayable",
      "type": "function"
    },
    {
      "inputs": [
        {
          "internalType": "address",
          "name": "from",
          "type": "address"
        },
        {
          "internalType": "address",
          "name": "to",
          "type": "address"
        },
        {
          "internalType": "uint256",
          "name": "tokenId",
          "type": "uint256"
        }
      ],
      "name": "safeTransferFrom",
      "outputs": [],
      "stateMutability": "nonpayable",
      "type": "function"
    },
    {
      "inputs": [
        {
          "internalType": "address",
          "name": "from",
          "type": "address"
        },
        {
          "internalType": "address",
          "name": "to",
          "type": "address"
        },
        {
          "internalType": "uint256",
          "name": "tokenId",
          "type": "uint256"
        },
        {
          "internalType": "bytes",
          "name": "_data",
          "type": "bytes"
        }
      ],
      "name": "safeTransferFrom",
      "outputs": [],
      "stateMutability": "nonpayable",
      "type": "function"
    },
    {
      "inputs": [
        {
          "internalType": "address",
          "name": "operator",
          "type": "address"
        },
        {
          "internalType": "bool",
          "name": "approved",
          "type": "bool"
        }
      ],
      "name": "setApprovalForAll",
      "outputs": [],
      "stateMutability": "nonpayable",
      "type": "function"
    },
    {
      "inputs": [
        {
          "internalType": "bytes4",
          "name": "interfaceId",
          "type": "bytes4"
        }
      ],
      "name": "supportsInterface",
      "outputs": [
        {
          "internalType": "bool",
          "name": "",
          "type": "bool"
        }
      ],
      "stateMutability": "view",
      "type": "function"
    },
    {
      "inputs": [],
      "name": "symbol",
      "outputs": [
        {
          "internalType": "string",
          "name": "",
          "type": "string"
        }
      ],
      "stateMutability": "view",
      "type": "function"
    },
    {
      "inputs": [
        {
          "internalType": "uint256",
          "name": "index",
          "type": "uint256"
        }
      ],
      "name": "tokenByIndex",
      "outputs": [
        {
          "internalType": "uint256",
          "name": "",
          "type": "uint256"
        }
      ],
      "stateMutability": "view",
      "type": "function"
    },
    {
      "inputs": [
        {
          "internalType": "address",
          "name": "owner",
          "type": "address"
        },
        {
          "internalType": "uint256",
          "name": "index",
          "type": "uint256"
        }
      ],
      "name": "tokenOfOwnerByIndex",
      "outputs": [
        {
          "internalType": "uint256",
          "name": "",
          "type": "uint256"
        }
      ],
      "stateMutability": "view",
      "type": "function"
    },
    {
      "inputs": [
        {
          "internalType": "uint256",
          "name": "tokenId",
          "type": "uint256"
        }
      ],
      "name": "tokenURI",
      "outputs": [
        {
          "internalType": "string",
          "name": "",
          "type": "string"
        }
      ],
      "stateMutability": "view",
      "type": "function"
    },
    {
      "inputs": [],
      "name": "totalSupply",
      "outputs": [
        {
          "internalType": "uint256",
          "name": "",
          "type": "uint256"
        }
      ],
      "stateMutability": "view",
      "type": "function"
    },
    {
      "inputs": [
        {
          "internalType": "address",
          "name": "from",
          "type": "address"
        },
        {
          "internalType": "address",
          "name": "to",
          "type": "address"
        },
        {
          "internalType": "uint256",
          "name": "tokenId",
          "type": "uint256"
        }
      ],
      "name": "transferFrom",
      "outputs": [],
      "stateMutability": "nonpayable",
      "type": "function"
    },
    {
      "inputs": [
        {
          "internalType": "address",
          "name": "newOwner",
          "type": "address"
        }
      ],
      "name": "transferOwnership",
      "outputs": [],
      "stateMutability": "nonpayable",
      "type": "function"
    },
    {
      "inputs": [
        {
          "internalType": "string",
          "name": "requestMessage",
          "type": "string"
        }
      ],
      "name": "SendRequest",
      "outputs": [],
      "stateMutability": "nonpayable",
      "type": "function"
    },
    {
      "inputs": [
        {
          "internalType": "string",
          "name": "responseMessage",
          "type": "string"
        }
      ],
      "name": "SendResponse",
      "outputs": [],
      "stateMutability": "nonpayable",
      "type": "function"
    }
  ],
  "bytecode": "0x60806040523480156200001157600080fd5b506040518060400160405280601a81526020017f54686520436f6c6f72732028746865636f6c6f72732e617274290000000000008152506040518060400160405280600681526020017f434f4c4f5253000000000000000000000000000000000000000000000000000081525081600090805190602001906200009692919062000259565b508060019080519060200190620000af92919062000259565b505050620000d2620000c66200018b60201b60201c565b6200019360201b60201c565b6040518060400160405280600681526020017f436f6c6f72730000000000000000000000000000000000000000000000000000815250600d90805190602001906200011f92919062000259565b506000600a60146101000a81548160ff0219169083600181111562000149576200014862000309565b5b02179055507f8fbf346523616c015d34c71713ea41bb98008282341b0f191f578d20d7ed26e26040516200017d9062000399565b60405180910390a162000420565b600033905090565b6000600a60009054906101000a900473ffffffffffffffffffffffffffffffffffffffff16905081600a60006101000a81548173ffffffffffffffffffffffffffffffffffffffff021916908373ffffffffffffffffffffffffffffffffffffffff1602179055508173ffffffffffffffffffffffffffffffffffffffff168173ffffffffffffffffffffffffffffffffffffffff167f8be0079c531659141344cd1fd0a4f28419497f9722a3daafe3b4186f6b6457e060405160405180910390a35050565b8280546200026790620003ea565b90600052602060002090601f0160209004810192826200028b5760008555620002d7565b82601f10620002a657805160ff1916838001178555620002d7565b82800160010185558215620002d7579182015b82811115620002d6578251825591602001919060010190620002b9565b5b509050620002e69190620002ea565b5090565b5b8082111562000305576000816000905550600101620002eb565b5090565b7f4e487b7100000000000000000000000000000000000000000000000000000000600052602160045260246000fd5b600082825260208201905092915050565b7f5265717565737400000000000000000000000000000000000000000000000000600082015250565b60006200038160078362000338565b91506200038e8262000349565b602082019050919050565b60006020820190508181036000830152620003b48162000372565b9050919050565b7f4e487b7100000000000000000000000000000000000000000000000000000000600052602260045260246000fd5b600060028204905060018216806200040357607f821691505b602082108114156200041a5762000419620003bb565b5b50919050565b6135cd80620004306000396000f3fe608060405234801561001057600080fd5b506004361061018e5760003560e01c8063829c2d6d116100de578063c87b56dd11610097578063e985e9c511610071578063e985e9c514610483578063f1b6dccd146104b3578063f2fde38b146104d1578063fd05116c146104ed5761018e565b8063c87b56dd14610417578063d181ada114610447578063e750e2da146104655761018e565b8063829c2d6d1461036b5780638da5cb5b1461038757806395d89b41146103a5578063a22cb465146103c3578063a7a1ba15146103df578063b88d4fde146103fb5761018e565b80632f745c591161014b5780635ab28ecb116101255780635ab28ecb146102e35780636352211e1461030157806370a0823114610331578063715018a6146103615761018e565b80632f745c591461026757806342842e0e146102975780634f6ccce7146102b35761018e565b806301ffc9a71461019357806306fdde03146101c3578063081812fc146101e1578063095ea7b31461021157806318160ddd1461022d57806323b872dd1461024b575b600080fd5b6101ad60048036038101906101a891906121ef565b61050b565b6040516101ba9190612237565b60405180910390f35b6101cb610585565b6040516101d891906122eb565b60405180910390f35b6101fb60048036038101906101f69190612343565b610617565b60405161020891906123b1565b60405180910390f35b61022b600480360381019061022691906123f8565b61069c565b005b6102356107b4565b6040516102429190612447565b60405180910390f35b61026560048036038101906102609190612462565b6107c1565b005b610281600480360381019061027c91906123f8565b610821565b60405161028e9190612447565b60405180910390f35b6102b160048036038101906102ac9190612462565b6108c6565b005b6102cd60048036038101906102c89190612343565b6108e6565b6040516102da9190612447565b60405180910390f35b6102eb610957565b6040516102f891906122eb565b60405180910390f35b61031b60048036038101906103169190612343565b6109e5565b60405161032891906123b1565b60405180910390f35b61034b600480360381019061034691906124b5565b610a97565b6040516103589190612447565b60405180910390f35b610369610b4f565b005b61038560048036038101906103809190612617565b610bd7565b005b61038f610c92565b60405161039c91906123b1565b60405180910390f35b6103ad610cbc565b6040516103ba91906122eb565b60405180910390f35b6103dd60048036038101906103d8919061268c565b610d4e565b005b6103f960048036038101906103f49190612617565b610d64565b005b6104156004803603810190610410919061276d565b610dea565b005b610431600480360381019061042c9190612343565b610e4c565b60405161043e91906122eb565b60405180910390f35b61044f610ef3565b60405161045c91906123b1565b60405180910390f35b61046d610f19565b60405161047a91906122eb565b60405180910390f35b61049d600480360381019061049891906127f0565b610fa7565b6040516104aa9190612237565b60405180910390f35b6104bb61103b565b6040516104c891906128a7565b60405180910390f35b6104eb60048036038101906104e691906124b5565b61104e565b005b6104f5611146565b60405161050291906123b1565b60405180910390f35b60007f780e9d63000000000000000000000000000000000000000000000000000000007bffffffffffffffffffffffffffffffffffffffffffffffffffffffff1916827bffffffffffffffffffffffffffffffffffffffffffffffffffffffff1916148061057e575061057d8261116c565b5b9050919050565b606060008054610594906128f1565b80601f01602080910402602001604051908101604052809291908181526020018280546105c0906128f1565b801561060d5780601f106105e25761010080835404028352916020019161060d565b820191906000526020600020905b8154815290600101906020018083116105f057829003601f168201915b5050505050905090565b60006106228261124e565b610661576040517f08c379a000000000000000000000000000000000000000000000000000000000815260040161065890612995565b60405180910390fd5b6004600083815260200190815260200160002060009054906101000a900473ffffffffffffffffffffffffffffffffffffffff169050919050565b60006106a7826109e5565b90508073ffffffffffffffffffffffffffffffffffffffff168373ffffffffffffffffffffffffffffffffffffffff161415610718576040517f08c379a000000000000000000000000000000000000000000000000000000000815260040161070f90612a27565b60405180910390fd5b8073ffffffffffffffffffffffffffffffffffffffff166107376112ba565b73ffffffffffffffffffffffffffffffffffffffff1614806107665750610765816107606112ba565b610fa7565b5b6107a5576040517f08c379a000000000000000000000000000000000000000000000000000000000815260040161079c90612ab9565b60405180910390fd5b6107af83836112c2565b505050565b6000600880549050905090565b6107d26107cc6112ba565b8261137b565b610811576040517f08c379a000000000000000000000000000000000000000000000000000000000815260040161080890612b4b565b60405180910390fd5b61081c838383611459565b505050565b600061082c83610a97565b821061086d576040517f08c379a000000000000000000000000000000000000000000000000000000000815260040161086490612bdd565b60405180910390fd5b600660008473ffffffffffffffffffffffffffffffffffffffff1673ffffffffffffffffffffffffffffffffffffffff168152602001908152602001600020600083815260200190815260200160002054905092915050565b6108e183838360405180602001604052806000815250610dea565b505050565b60006108f06107b4565b8210610931576040517f08c379a000000000000000000000000000000000000000000000000000000000815260040161092890612c6f565b60405180910390fd5b6008828154811061094557610944612c8f565b5b90600052602060002001549050919050565b600e8054610964906128f1565b80601f0160208091040260200160405190810160405280929190818152602001828054610990906128f1565b80156109dd5780601f106109b2576101008083540402835291602001916109dd565b820191906000526020600020905b8154815290600101906020018083116109c057829003601f168201915b505050505081565b6000806002600084815260200190815260200160002060009054906101000a900473ffffffffffffffffffffffffffffffffffffffff169050600073ffffffffffffffffffffffffffffffffffffffff168173ffffffffffffffffffffffffffffffffffffffff161415610a8e576040517f08c379a0000000000000000000000000000000000000000000000000000000008152600401610a8590612d30565b60405180910390fd5b80915050919050565b60008073ffffffffffffffffffffffffffffffffffffffff168273ffffffffffffffffffffffffffffffffffffffff161415610b08576040517f08c379a0000000000000000000000000000000000000000000000000000000008152600401610aff90612dc2565b60405180910390fd5b600360008373ffffffffffffffffffffffffffffffffffffffff1673ffffffffffffffffffffffffffffffffffffffff168152602001908152602001600020549050919050565b610b576112ba565b73ffffffffffffffffffffffffffffffffffffffff16610b75610c92565b73ffffffffffffffffffffffffffffffffffffffff1614610bcb576040517f08c379a0000000000000000000000000000000000000000000000000000000008152600401610bc290612e2e565b60405180910390fd5b610bd560006116b5565b565b33600c60006101000a81548173ffffffffffffffffffffffffffffffffffffffff021916908373ffffffffffffffffffffffffffffffffffffffff16021790555080600e9080519060200190610c2e9291906120e0565b506001600a60146101000a81548160ff02191690836001811115610c5557610c54612830565b5b02179055507f8fbf346523616c015d34c71713ea41bb98008282341b0f191f578d20d7ed26e2604051610c8790612e9a565b60405180910390a150565b6000600a60009054906101000a900473ffffffffffffffffffffffffffffffffffffffff16905090565b606060018054610ccb906128f1565b80601f0160208091040260200160405190810160405280929190818152602001828054610cf7906128f1565b8015610d445780601f10610d1957610100808354040283529160200191610d44565b820191906000526020600020905b815481529060010190602001808311610d2757829003601f168201915b5050505050905090565b610d60610d596112ba565b838361177b565b5050565b33600b60006101000a81548173ffffffffffffffffffffffffffffffffffffffff021916908373ffffffffffffffffffffffffffffffffffffffff16021790555080600d9080519060200190610dbb9291906120e0565b506000600a60146101000a81548160ff02191690836001811115610de257610de1612830565b5b021790555050565b610dfb610df56112ba565b8361137b565b610e3a576040517f08c379a0000000000000000000000000000000000000000000000000000000008152600401610e3190612b4b565b60405180910390fd5b610e46848484846118e8565b50505050565b6060610e578261124e565b610e96576040517f08c379a0000000000000000000000000000000000000000000000000000000008152600401610e8d90612f2c565b60405180910390fd5b6000610ea0611944565b90506000815111610ec05760405180602001604052806000815250610eeb565b80610eca8461195b565b604051602001610edb929190612f88565b6040516020818303038152906040525b915050919050565b600c60009054906101000a900473ffffffffffffffffffffffffffffffffffffffff1681565b600d8054610f26906128f1565b80601f0160208091040260200160405190810160405280929190818152602001828054610f52906128f1565b8015610f9f5780601f10610f7457610100808354040283529160200191610f9f565b820191906000526020600020905b815481529060010190602001808311610f8257829003601f168201915b505050505081565b6000600560008473ffffffffffffffffffffffffffffffffffffffff1673ffffffffffffffffffffffffffffffffffffffff16815260200190815260200160002060008373ffffffffffffffffffffffffffffffffffffffff1673ffffffffffffffffffffffffffffffffffffffff16815260200190815260200160002060009054906101000a900460ff16905092915050565b600a60149054906101000a900460ff1681565b6110566112ba565b73ffffffffffffffffffffffffffffffffffffffff16611074610c92565b73ffffffffffffffffffffffffffffffffffffffff16146110ca576040517f08c379a00000000000000000000000000000000000000000000000000000000081526004016110c190612e2e565b60405180910390fd5b600073ffffffffffffffffffffffffffffffffffffffff168173ffffffffffffffffffffffffffffffffffffffff16141561113a576040517f08c379a00000000000000000000000000000000000000000000000000000000081526004016111319061301e565b60405180910390fd5b611143816116b5565b50565b600b60009054906101000a900473ffffffffffffffffffffffffffffffffffffffff1681565b60007f80ac58cd000000000000000000000000000000000000000000000000000000007bffffffffffffffffffffffffffffffffffffffffffffffffffffffff1916827bffffffffffffffffffffffffffffffffffffffffffffffffffffffff1916148061123757507f5b5e139f000000000000000000000000000000000000000000000000000000007bffffffffffffffffffffffffffffffffffffffffffffffffffffffff1916827bffffffffffffffffffffffffffffffffffffffffffffffffffffffff1916145b80611247575061124682611abc565b5b9050919050565b60008073ffffffffffffffffffffffffffffffffffffffff166002600084815260200190815260200160002060009054906101000a900473ffffffffffffffffffffffffffffffffffffffff1673ffffffffffffffffffffffffffffffffffffffff1614159050919050565b600033905090565b816004600083815260200190815260200160002060006101000a81548173ffffffffffffffffffffffffffffffffffffffff021916908373ffffffffffffffffffffffffffffffffffffffff160217905550808273ffffffffffffffffffffffffffffffffffffffff16611335836109e5565b73ffffffffffffffffffffffffffffffffffffffff167f8c5be1e5ebec7d5bd14f71427d1e84f3dd0314c0f7b2291e5b200ac8c7c3b92560405160405180910390a45050565b60006113868261124e565b6113c5576040517f08c379a00000000000000000000000000000000000000000000000000000000081526004016113bc906130b0565b60405180910390fd5b60006113d0836109e5565b90508073ffffffffffffffffffffffffffffffffffffffff168473ffffffffffffffffffffffffffffffffffffffff16148061143f57508373ffffffffffffffffffffffffffffffffffffffff1661142784610617565b73ffffffffffffffffffffffffffffffffffffffff16145b80611450575061144f8185610fa7565b5b91505092915050565b8273ffffffffffffffffffffffffffffffffffffffff16611479826109e5565b73ffffffffffffffffffffffffffffffffffffffff16146114cf576040517f08c379a00000000000000000000000000000000000000000000000000000000081526004016114c690613142565b60405180910390fd5b600073ffffffffffffffffffffffffffffffffffffffff168273ffffffffffffffffffffffffffffffffffffffff16141561153f576040517f08c379a0000000000000000000000000000000000000000000000000000000008152600401611536906131d4565b60405180910390fd5b61154a838383611b26565b6115556000826112c2565b6001600360008573ffffffffffffffffffffffffffffffffffffffff1673ffffffffffffffffffffffffffffffffffffffff16815260200190815260200160002060008282546115a59190613223565b925050819055506001600360008473ffffffffffffffffffffffffffffffffffffffff1673ffffffffffffffffffffffffffffffffffffffff16815260200190815260200160002060008282546115fc9190613257565b92505081905550816002600083815260200190815260200160002060006101000a81548173ffffffffffffffffffffffffffffffffffffffff021916908373ffffffffffffffffffffffffffffffffffffffff160217905550808273ffffffffffffffffffffffffffffffffffffffff168473ffffffffffffffffffffffffffffffffffffffff167fddf252ad1be2c89b69c2b068fc378daa952ba7f163c4a11628f55a4df523b3ef60405160405180910390a4505050565b6000600a60009054906101000a900473ffffffffffffffffffffffffffffffffffffffff16905081600a60006101000a81548173ffffffffffffffffffffffffffffffffffffffff021916908373ffffffffffffffffffffffffffffffffffffffff1602179055508173ffffffffffffffffffffffffffffffffffffffff168173ffffffffffffffffffffffffffffffffffffffff167f8be0079c531659141344cd1fd0a4f28419497f9722a3daafe3b4186f6b6457e060405160405180910390a35050565b8173ffffffffffffffffffffffffffffffffffffffff168373ffffffffffffffffffffffffffffffffffffffff1614156117ea576040517f08c379a00000000000000000000000000000000000000000000000000000000081526004016117e1906132f9565b60405180910390fd5b80600560008573ffffffffffffffffffffffffffffffffffffffff1673ffffffffffffffffffffffffffffffffffffffff16815260200190815260200160002060008473ffffffffffffffffffffffffffffffffffffffff1673ffffffffffffffffffffffffffffffffffffffff16815260200190815260200160002060006101000a81548160ff0219169083151502179055508173ffffffffffffffffffffffffffffffffffffffff168373ffffffffffffffffffffffffffffffffffffffff167f17307eab39ab6107e8899845ad3d59bd9653f200f220920489ca2b5937696c31836040516118db9190612237565b60405180910390a3505050565b6118f3848484611459565b6118ff84848484611c3a565b61193e576040517f08c379a00000000000000000000000000000000000000000000000000000000081526004016119359061338b565b60405180910390fd5b50505050565b606060405180602001604052806000815250905090565b606060008214156119a3576040518060400160405280600181526020017f30000000000000000000000000000000000000000000000000000000000000008152509050611ab7565b600082905060005b600082146119d55780806119be906133ab565b915050600a826119ce9190613423565b91506119ab565b60008167ffffffffffffffff8111156119f1576119f06124ec565b5b6040519080825280601f01601f191660200182016040528015611a235781602001600182028036833780820191505090505b5090505b60008514611ab057600182611a3c9190613223565b9150600a85611a4b9190613454565b6030611a579190613257565b60f81b818381518110611a6d57611a6c612c8f565b5b60200101907effffffffffffffffffffffffffffffffffffffffffffffffffffffffffffff1916908160001a905350600a85611aa99190613423565b9450611a27565b8093505050505b919050565b60007f01ffc9a7000000000000000000000000000000000000000000000000000000007bffffffffffffffffffffffffffffffffffffffffffffffffffffffff1916827bffffffffffffffffffffffffffffffffffffffffffffffffffffffff1916149050919050565b611b31838383611dc2565b600073ffffffffffffffffffffffffffffffffffffffff168373ffffffffffffffffffffffffffffffffffffffff161415611b7457611b6f81611dc7565b611bb3565b8173ffffffffffffffffffffffffffffffffffffffff168373ffffffffffffffffffffffffffffffffffffffff1614611bb257611bb18382611e10565b5b5b600073ffffffffffffffffffffffffffffffffffffffff168273ffffffffffffffffffffffffffffffffffffffff161415611bf657611bf181611f7d565b611c35565b8273ffffffffffffffffffffffffffffffffffffffff168273ffffffffffffffffffffffffffffffffffffffff1614611c3457611c33828261204e565b5b5b505050565b6000611c5b8473ffffffffffffffffffffffffffffffffffffffff166120cd565b15611db5578373ffffffffffffffffffffffffffffffffffffffff1663150b7a02611c846112ba565b8786866040518563ffffffff1660e01b8152600401611ca694939291906134da565b6020604051808303816000875af1925050508015611ce257506040513d601f19601f82011682018060405250810190611cdf919061353b565b60015b611d65573d8060008114611d12576040519150601f19603f3d011682016040523d82523d6000602084013e611d17565b606091505b50600081511415611d5d576040517f08c379a0000000000000000000000000000000000000000000000000000000008152600401611d549061338b565b60405180910390fd5b805181602001fd5b63150b7a0260e01b7bffffffffffffffffffffffffffffffffffffffffffffffffffffffff1916817bffffffffffffffffffffffffffffffffffffffffffffffffffffffff191614915050611dba565b600190505b949350505050565b505050565b6008805490506009600083815260200190815260200160002081905550600881908060018154018082558091505060019003906000526020600020016000909190919091505550565b60006001611e1d84610a97565b611e279190613223565b9050600060076000848152602001908152602001600020549050818114611f0c576000600660008673ffffffffffffffffffffffffffffffffffffffff1673ffffffffffffffffffffffffffffffffffffffff168152602001908152602001600020600084815260200190815260200160002054905080600660008773ffffffffffffffffffffffffffffffffffffffff1673ffffffffffffffffffffffffffffffffffffffff168152602001908152602001600020600084815260200190815260200160002081905550816007600083815260200190815260200160002081905550505b6007600084815260200190815260200160002060009055600660008573ffffffffffffffffffffffffffffffffffffffff1673ffffffffffffffffffffffffffffffffffffffff16815260200190815260200160002060008381526020019081526020016000206000905550505050565b60006001600880549050611f919190613223565b9050600060096000848152602001908152602001600020549050600060088381548110611fc157611fc0612c8f565b5b906000526020600020015490508060088381548110611fe357611fe2612c8f565b5b90600052602060002001819055508160096000838152602001908152602001600020819055506009600085815260200190815260200160002060009055600880548061203257612031613568565b5b6001900381819060005260206000200160009055905550505050565b600061205983610a97565b905081600660008573ffffffffffffffffffffffffffffffffffffffff1673ffffffffffffffffffffffffffffffffffffffff168152602001908152602001600020600083815260200190815260200160002081905550806007600084815260200190815260200160002081905550505050565b600080823b905060008111915050919050565b8280546120ec906128f1565b90600052602060002090601f01602090048101928261210e5760008555612155565b82601f1061212757805160ff1916838001178555612155565b82800160010185558215612155579182015b82811115612154578251825591602001919060010190612139565b5b5090506121629190612166565b5090565b5b8082111561217f576000816000905550600101612167565b5090565b6000604051905090565b600080fd5b600080fd5b60007fffffffff0000000000000000000000000000000000000000000000000000000082169050919050565b6121cc81612197565b81146121d757600080fd5b50565b6000813590506121e9816121c3565b92915050565b6000602082840312156122055761220461218d565b5b6000612213848285016121da565b91505092915050565b60008115159050919050565b6122318161221c565b82525050565b600060208201905061224c6000830184612228565b92915050565b600081519050919050565b600082825260208201905092915050565b60005b8381101561228c578082015181840152602081019050612271565b8381111561229b576000848401525b50505050565b6000601f19601f8301169050919050565b60006122bd82612252565b6122c7818561225d565b93506122d781856020860161226e565b6122e0816122a1565b840191505092915050565b6000602082019050818103600083015261230581846122b2565b905092915050565b6000819050919050565b6123208161230d565b811461232b57600080fd5b50565b60008135905061233d81612317565b92915050565b6000602082840312156123595761235861218d565b5b60006123678482850161232e565b91505092915050565b600073ffffffffffffffffffffffffffffffffffffffff82169050919050565b600061239b82612370565b9050919050565b6123ab81612390565b82525050565b60006020820190506123c660008301846123a2565b92915050565b6123d581612390565b81146123e057600080fd5b50565b6000813590506123f2816123cc565b92915050565b6000806040838503121561240f5761240e61218d565b5b600061241d858286016123e3565b925050602061242e8582860161232e565b9150509250929050565b6124418161230d565b82525050565b600060208201905061245c6000830184612438565b92915050565b60008060006060848603121561247b5761247a61218d565b5b6000612489868287016123e3565b935050602061249a868287016123e3565b92505060406124ab8682870161232e565b9150509250925092565b6000602082840312156124cb576124ca61218d565b5b60006124d9848285016123e3565b91505092915050565b600080fd5b600080fd5b7f4e487b7100000000000000000000000000000000000000000000000000000000600052604160045260246000fd5b612524826122a1565b810181811067ffffffffffffffff82111715612543576125426124ec565b5b80604052505050565b6000612556612183565b9050612562828261251b565b919050565b600067ffffffffffffffff821115612582576125816124ec565b5b61258b826122a1565b9050602081019050919050565b82818337600083830152505050565b60006125ba6125b584612567565b61254c565b9050828152602081018484840111156125d6576125d56124e7565b5b6125e1848285612598565b509392505050565b600082601f8301126125fe576125fd6124e2565b5b813561260e8482602086016125a7565b91505092915050565b60006020828403121561262d5761262c61218d565b5b600082013567ffffffffffffffff81111561264b5761264a612192565b5b612657848285016125e9565b91505092915050565b6126698161221c565b811461267457600080fd5b50565b60008135905061268681612660565b92915050565b600080604083850312156126a3576126a261218d565b5b60006126b1858286016123e3565b92505060206126c285828601612677565b9150509250929050565b600067ffffffffffffffff8211156126e7576126e66124ec565b5b6126f0826122a1565b9050602081019050919050565b600061271061270b846126cc565b61254c565b90508281526020810184848401111561272c5761272b6124e7565b5b612737848285612598565b509392505050565b600082601f830112612754576127536124e2565b5b81356127648482602086016126fd565b91505092915050565b600080600080608085870312156127875761278661218d565b5b6000612795878288016123e3565b94505060206127a6878288016123e3565b93505060406127b78782880161232e565b925050606085013567ffffffffffffffff8111156127d8576127d7612192565b5b6127e48782880161273f565b91505092959194509250565b600080604083850312156128075761280661218d565b5b6000612815858286016123e3565b9250506020612826858286016123e3565b9150509250929050565b7f4e487b7100000000000000000000000000000000000000000000000000000000600052602160045260246000fd5b600281106128705761286f612830565b5b50565b60008190506128818261285f565b919050565b600061289182612873565b9050919050565b6128a181612886565b82525050565b60006020820190506128bc6000830184612898565b92915050565b7f4e487b7100000000000000000000000000000000000000000000000000000000600052602260045260246000fd5b6000600282049050600182168061290957607f821691505b6020821081141561291d5761291c6128c2565b5b50919050565b7f4552433732313a20617070726f76656420717565727920666f72206e6f6e657860008201527f697374656e7420746f6b656e0000000000000000000000000000000000000000602082015250565b600061297f602c8361225d565b915061298a82612923565b604082019050919050565b600060208201905081810360008301526129ae81612972565b9050919050565b7f4552433732313a20617070726f76616c20746f2063757272656e74206f776e6560008201527f7200000000000000000000000000000000000000000000000000000000000000602082015250565b6000612a1160218361225d565b9150612a1c826129b5565b604082019050919050565b60006020820190508181036000830152612a4081612a04565b9050919050565b7f4552433732313a20617070726f76652063616c6c6572206973206e6f74206f7760008201527f6e6572206e6f7220617070726f76656420666f7220616c6c0000000000000000602082015250565b6000612aa360388361225d565b9150612aae82612a47565b604082019050919050565b60006020820190508181036000830152612ad281612a96565b9050919050565b7f4552433732313a207472616e736665722063616c6c6572206973206e6f74206f60008201527f776e6572206e6f7220617070726f766564000000000000000000000000000000602082015250565b6000612b3560318361225d565b9150612b4082612ad9565b604082019050919050565b60006020820190508181036000830152612b6481612b28565b9050919050565b7f455243373231456e756d657261626c653a206f776e657220696e646578206f7560008201527f74206f6620626f756e6473000000000000000000000000000000000000000000602082015250565b6000612bc7602b8361225d565b9150612bd282612b6b565b604082019050919050565b60006020820190508181036000830152612bf681612bba565b9050919050565b7f455243373231456e756d657261626c653a20676c6f62616c20696e646578206f60008201527f7574206f6620626f756e64730000000000000000000000000000000000000000602082015250565b6000612c59602c8361225d565b9150612c6482612bfd565b604082019050919050565b60006020820190508181036000830152612c8881612c4c565b9050919050565b7f4e487b7100000000000000000000000000000000000000000000000000000000600052603260045260246000fd5b7f4552433732313a206f776e657220717565727920666f72206e6f6e657869737460008201527f656e7420746f6b656e0000000000000000000000000000000000000000000000602082015250565b6000612d1a60298361225d565b9150612d2582612cbe565b604082019050919050565b60006020820190508181036000830152612d4981612d0d565b9050919050565b7f4552433732313a2062616c616e636520717565727920666f7220746865207a6560008201527f726f206164647265737300000000000000000000000000000000000000000000602082015250565b6000612dac602a8361225d565b9150612db782612d50565b604082019050919050565b60006020820190508181036000830152612ddb81612d9f565b9050919050565b7f4f776e61626c653a2063616c6c6572206973206e6f7420746865206f776e6572600082015250565b6000612e1860208361225d565b9150612e2382612de2565b602082019050919050565b60006020820190508181036000830152612e4781612e0b565b9050919050565b7f526573706f6e7365000000000000000000000000000000000000000000000000600082015250565b6000612e8460088361225d565b9150612e8f82612e4e565b602082019050919050565b60006020820190508181036000830152612eb381612e77565b9050919050565b7f4552433732314d657461646174613a2055524920717565727920666f72206e6f60008201527f6e6578697374656e7420746f6b656e0000000000000000000000000000000000602082015250565b6000612f16602f8361225d565b9150612f2182612eba565b604082019050919050565b60006020820190508181036000830152612f4581612f09565b9050919050565b600081905092915050565b6000612f6282612252565b612f6c8185612f4c565b9350612f7c81856020860161226e565b80840191505092915050565b6000612f948285612f57565b9150612fa08284612f57565b91508190509392505050565b7f4f776e61626c653a206e6577206f776e657220697320746865207a65726f206160008201527f6464726573730000000000000000000000000000000000000000000000000000602082015250565b600061300860268361225d565b915061301382612fac565b604082019050919050565b6000602082019050818103600083015261303781612ffb565b9050919050565b7f4552433732313a206f70657261746f7220717565727920666f72206e6f6e657860008201527f697374656e7420746f6b656e0000000000000000000000000000000000000000602082015250565b600061309a602c8361225d565b91506130a58261303e565b604082019050919050565b600060208201905081810360008301526130c98161308d565b9050919050565b7f4552433732313a207472616e73666572206f6620746f6b656e2074686174206960008201527f73206e6f74206f776e0000000000000000000000000000000000000000000000602082015250565b600061312c60298361225d565b9150613137826130d0565b604082019050919050565b6000602082019050818103600083015261315b8161311f565b9050919050565b7f4552433732313a207472616e7366657220746f20746865207a65726f2061646460008201527f7265737300000000000000000000000000000000000000000000000000000000602082015250565b60006131be60248361225d565b91506131c982613162565b604082019050919050565b600060208201905081810360008301526131ed816131b1565b9050919050565b7f4e487b7100000000000000000000000000000000000000000000000000000000600052601160045260246000fd5b600061322e8261230d565b91506132398361230d565b92508282101561324c5761324b6131f4565b5b828203905092915050565b60006132628261230d565b915061326d8361230d565b9250827fffffffffffffffffffffffffffffffffffffffffffffffffffffffffffffffff038211156132a2576132a16131f4565b5b828201905092915050565b7f4552433732313a20617070726f766520746f2063616c6c657200000000000000600082015250565b60006132e360198361225d565b91506132ee826132ad565b602082019050919050565b60006020820190508181036000830152613312816132d6565b9050919050565b7f4552433732313a207472616e7366657220746f206e6f6e20455243373231526560008201527f63656976657220696d706c656d656e7465720000000000000000000000000000602082015250565b600061337560328361225d565b915061338082613319565b604082019050919050565b600060208201905081810360008301526133a481613368565b9050919050565b60006133b68261230d565b91507fffffffffffffffffffffffffffffffffffffffffffffffffffffffffffffffff8214156133e9576133e86131f4565b5b600182019050919050565b7f4e487b7100000000000000000000000000000000000000000000000000000000600052601260045260246000fd5b600061342e8261230d565b91506134398361230d565b925082613449576134486133f4565b5b828204905092915050565b600061345f8261230d565b915061346a8361230d565b92508261347a576134796133f4565b5b828206905092915050565b600081519050919050565b600082825260208201905092915050565b60006134ac82613485565b6134b68185613490565b93506134c681856020860161226e565b6134cf816122a1565b840191505092915050565b60006080820190506134ef60008301876123a2565b6134fc60208301866123a2565b6135096040830185612438565b818103606083015261351b81846134a1565b905095945050505050565b600081519050613535816121c3565b92915050565b6000602082840312156135515761355061218d565b5b600061355f84828501613526565b91505092915050565b7f4e487b7100000000000000000000000000000000000000000000000000000000600052603160045260246000fdfea2646970667358221220aad78f1a3d0deabd2507b67e82a8eae2ba0f579d1c3267513a439360dccbca7164736f6c634300080b0033",
  "immutableReferences": {},
  "source": "// SPDX-License-Identifier: MIT\npragma solidity ^0.8.0;\nimport \"@openzeppelin/contracts/access/Ownable.sol\";\nimport \"@openzeppelin/contracts/utils/Strings.sol\";\nimport \"@openzeppelin/contracts/token/ERC721/extensions/ERC721Enumerable.sol\";\n\ncontract OldColorsContract is ERC721Enumerable, Ownable {\n    //Set of States\n    enum StateType {\n        Request,\n        Respond\n    }\n\n    //List of properties\n    StateType public State;\n    address public Requestor;\n    address public Responder;\n\n    string public RequestMessage;\n    string public ResponseMessage;\n\n    event StateChanged(string stateData);\n\n    constructor() ERC721(\"The Colors (thecolors.art)\", \"COLORS\") {\n        RequestMessage = \"Colors\";\n        State = StateType.Request;\n\n        emit StateChanged(\"Request\");\n    }\n\n    // constructor function\n\n    // call this function to send a request\n    function SendRequest(string memory requestMessage) public {\n        Requestor = msg.sender;\n\n        RequestMessage = requestMessage;\n        State = StateType.Request;\n    }\n\n    // call this function to send a response\n    function SendResponse(string memory responseMessage) public {\n        Responder = msg.sender;\n\n        // call ContractUpdated() to record this action\n        ResponseMessage = responseMessage;\n        State = StateType.Respond;\n\n        emit StateChanged(\"Response\");\n    }\n}\n",
  "sourcePath": "/Users/roman/Documents/colorscontract/contracts/OldColorsContract.sol",
  "compiler": {
    "name": "solc",
    "version": "0.8.11+commit.d7f03943.Emscripten.clang"
  },
  "schemaVersion": "3.4.4",
  "updatedAt": "2021-12-29T23:48:45.101Z",
  "devdoc": {
    "kind": "dev",
    "methods": {
      "approve(address,uint256)": {
        "details": "See {IERC721-approve}."
      },
      "balanceOf(address)": {
        "details": "See {IERC721-balanceOf}."
      },
      "getApproved(uint256)": {
        "details": "See {IERC721-getApproved}."
      },
      "isApprovedForAll(address,address)": {
        "details": "See {IERC721-isApprovedForAll}."
      },
      "name()": {
        "details": "See {IERC721Metadata-name}."
      },
      "owner()": {
        "details": "Returns the address of the current owner."
      },
      "ownerOf(uint256)": {
        "details": "See {IERC721-ownerOf}."
      },
      "renounceOwnership()": {
        "details": "Leaves the contract without owner. It will not be possible to call `onlyOwner` functions anymore. Can only be called by the current owner. NOTE: Renouncing ownership will leave the contract without an owner, thereby removing any functionality that is only available to the owner."
      },
      "safeTransferFrom(address,address,uint256)": {
        "details": "See {IERC721-safeTransferFrom}."
      },
      "safeTransferFrom(address,address,uint256,bytes)": {
        "details": "See {IERC721-safeTransferFrom}."
      },
      "setApprovalForAll(address,bool)": {
        "details": "See {IERC721-setApprovalForAll}."
      },
      "supportsInterface(bytes4)": {
        "details": "See {IERC165-supportsInterface}."
      },
      "symbol()": {
        "details": "See {IERC721Metadata-symbol}."
      },
      "tokenByIndex(uint256)": {
        "details": "See {IERC721Enumerable-tokenByIndex}."
      },
      "tokenOfOwnerByIndex(address,uint256)": {
        "details": "See {IERC721Enumerable-tokenOfOwnerByIndex}."
      },
      "tokenURI(uint256)": {
        "details": "See {IERC721Metadata-tokenURI}."
      },
      "totalSupply()": {
        "details": "See {IERC721Enumerable-totalSupply}."
      },
      "transferFrom(address,address,uint256)": {
        "details": "See {IERC721-transferFrom}."
      },
      "transferOwnership(address)": {
        "details": "Transfers ownership of the contract to a new account (`newOwner`). Can only be called by the current owner."
      }
    },
    "version": 1
  },
  "userdoc": {
    "kind": "user",
    "methods": {},
    "version": 1
  }
}